:020000040000FA
:060000000A128A11FC2F18
:100D60000F308312031306060319B72EB82E502F27
:100D7000E03086008619BD2EBE2EC32E0130F00055
:100D80000030F100522F0619C62EC72ECC2E02308D
:100D9000F0000030F100522F8618CF2ED02ED52E25
:100DA0000330F0000030F100522F0618D82ED92E53
:100DB000DE2E0430F0000030F100522FD0308600DB
:100DC0008619E32EE42EE92E0530F0000030F10004
:100DD000522F0619EC2EED2EF22E0630F0000030C8
:100DE000F100522F8618F52EF62EFB2E0730F0005C
:100DF0000030F100522F0618FE2EFF2E042F08306F
:100E0000F0000030F100522FB03086008619092F13
:100E10000A2F0F2F0930F0000030F100522F061971
:100E2000122F132F182F0A30F0000030F100522F2C
:100E300086181B2F1C2F212F0B30F0000030F100E3
:100E4000522F0618242F252F2A2F0C30F0000030A7
:100E5000F100522F7030860086192F2F302F352F3A
:100E60000D30F0000030F100522F0619382F392FC5
:100E70003E2F0E30F0000030F100522F8618412F27
:100E8000422F472F0F30F0000030F100522F06188C
:100E90004A2F4B2F502F1030F0000030F100522F0E
:100EA000F001F1010800831603178901831203136F
:100EB00086010F308316031386000F3095007F30B4
:100EC00081009601831203138701831603138701A0
:100ED0000A128A11B0260A128A117108F3007008EA
:100EE000F200C22F0130831203138700682F0230F3
:100EF000831203138700682F0330831203138700C4
:100F0000682F0430831203138700682F0530831283
:100F100003138700682F0630831203138700682F9E
:100F20000730831203138700682F083083120313DE
:100F30008700682F0930831203138700682F0A3057
:100F4000831203138700682F0B308312031387006B
:100F5000682F0C30831203138700682F0D30831223
:100F600003138700682F0E30831203138700682F46
:100F70000F30831203138700682F1030831203137E
:100F80008700682F7308003A0319C72F682F72086B
:100F9000013A0319722F033A0319772F013A031903
:100FA0007C2F073A0319812F013A0319862F033A40
:100FB00003198B2F013A0319902F0F3A0319952F1C
:100FC000013A03199A2F033A03199F2F013A031983
:100FD000A42F073A0319A92F013A0319AE2F033A98
:100FE0000319B32F013A0319B82F1F3A0319BD2F64
:100FF000682F0A128A11002883010A128A11532FBE
:02400E00F2209E
:00000001FF
