:020000040000FA
:060000000A128A11FC2F18
:100D0A008130831203139F00831603139F01080087
:100D1A00FB007B080A128A1113270A128A110D3066
:100D2A00FA00FB30F900F90B982EFA0B982E9D2E3B
:100D3A00831203139F149F18A32EA42EA02E1E08FD
:100D4A00F800831603131E08F7000800F30073184F
:100D5A00AF2EB32E831203139F16B62E83120313DC
:100D6A009F127018B92EBD2E831203131F16C02EA0
:100D7A00831203131F127118C32EC72E8312031373
:100D8A009F15CA2E831203139F117218CD2ED12ECE
:100D9A00831203131F15D42E831203131F11080085
:100DAA00831203138901013083160313890001306A
:100DBA00831603178800831203138701831603130C
:100DCA0087018312031388018316031388010A1209
:100DDA008A1185260A128A1105300A128A118D266D
:100DEA000A128A117808FD007708FC007C08831231
:100DFA00031387007D088800033083120313A200BF
:100E0A008A30A1005530A000A00B092FA10B092F91
:100E1A00A20B092FF12E0A128A110028F600F001FE
:100E2A00F101F20100300A128A11AB260A128A1164
:100E3A00C72FF001F101F20100300A128A11AB2624
:100E4A000A128A11FB2FF001F101F201F20A0030B5
:100E5A000A128A11AB260A128A11FB2FF001F1013C
:100E6A00F10AF20100300A128A11AB260A128A111B
:100E7A00FB2FF001F101F10AF201F20A00300A1225
:100E8A008A11AB260A128A11FB2FF001F00AF1012E
:100E9A00F20100300A128A11AB260A128A11FB2FBC
:100EAA00F001F00AF101F201F20A00300A128A1185
:100EBA00AB260A128A11FB2FF001F00AF101F10A9E
:100ECA00F20100300A128A11AB260A128A11FB2F8C
:100EDA00F001F00AF101F10AF201F20A00300A12F5
:100EEA008A11AB260A128A11FB2FF001F101F201D5
:100EFA0001300A128A11AB260A128A11FB2FF0015D
:100F0A00F101F201F20A01300A128A11AB260A1221
:100F1A008A11FB2FF001F101F10AF20101300A12E4
:100F2A008A11AB260A128A11FB2FF001F101F10A8C
:100F3A00F201F20A01300A128A11AB260A128A1148
:100F4A00FB2FF001F00AF101F20101300A128A11B5
:100F5A00AB260A128A11FB2FF001F00AF101F20105
:100F6A00F20A01300A128A11AB260A128A11FB2FE1
:100F7A00F001F101F20100300A128A11AB260A12BD
:100F8A008A11FB2F7608F400F5017508003A031957
:100F9A00CF2FBD2F7408003A03191E2F013A0319E7
:100FAA00282F033A0319332F013A03193E2F073A20
:100FBA0003194A2F013A0319552F033A0319612FCE
:100FCA00013A03196D2F0F3A03197A2F013A0319BF
:100FDA00842F033A03198F2F013A03199A2F073ADC
:100FEA000319A62F013A0319B12FBD2F0800830157
:060FFA000A128A11D52E37
:02400E00F2209E
:00000001FF
