:020000040000FA
:060000000A128A11FC2F18
:100F7800831603178801831203138901013083162E
:100F880003138900831203130918CB2FCC2FC62F04
:100F98000330F2008A30F1005530F000F00BD22F08
:100FA800F10BD22FF20BD22FD92F8312031309186A
:100FB800DE2FDF2FC62F063009020318E42FE52F96
:100FC800F72F0230F000700889071A30F2005E30FF
:100FD800F1006E30F000F00BEF2FF10BEF2FF20B5A
:100FE800EF2F0000C62F8901E92F0A128A11002865
:080FF80083010A128A11BC2FCB
:02400E00F2209E
:00000001FF
