:020000040000FA
:100000000A128A11D92F00308A000408840A820754
:10001000003420343734383439342F3434343534E0
:1000200036342A343134323433342D34633430347A
:100030003D342B3420345434653463346C346134AF
:060040003A3420340034C4
:1006F400073400341A342C343E34FA00F801F9017A
:10070400962B78087A0784000A128A1103200A12A9
:100714008A110A128A11FF230A128A110130F8077A
:100724000318F90A0030F90778087A0784000A12D6
:100734008A1103200A128A11003A031DA22BA32B4B
:10074400832B0800F7000130F400831203133008F0
:100754000739013EAF2B0310F40DFF3E031DAD2BF3
:100764007408FF3AF5002E08840083172F1C8313A6
:100774007508800577080A128A11F6250A128A116B
:100784000130F40083120313300CF500F50C750CE2
:100794000739013ECF2B0310F40DFF3E031DCD2B73
:1007A4007408F6002E08840083172F1C8313760820
:1007B40080041A30F500F830F400F40BDF2BF50B4D
:1007C400DF2B00000130F40083120313300CF5001A
:1007D400F50C750C0739013EF12B0310F40DFF3EA7
:1007E400031DEF2B7408FF3AF6002E0884008317CC
:1007F4002F1C8313760880050800F7000130F400ED
:100804008312031330080739013E0A2C0310F40D38
:10081400FF3E031D082C7408F5002E08840083177E
:100824002F1C8313750880047708F4000430031028
:10083400F40CFF3E031D192C74080F390A128A1197
:10084400F6250A128A110130F40083120313300CC6
:10085400F500F50C750C0739013E322C0310F40D2C
:10086400FF3E031D302C7408F6002E088400831705
:100874002F1C8313760880044230F400F40B402CC0
:1008840000000130F40083120313300CF500F50C62
:10089400750C0739013E502C0310F40DFF3E031D67
:1008A4004E2C7408FF3AF6002E08840083172F1C80
:1008B40083137608800577080F390A128A11F62502
:1008C4000A128A110130F40083120313300CF5006C
:1008D400F50C750C0739013E712C0310F40DFF3E25
:1008E400031D6F2C7408F6002E08840083172F1C38
:1008F4008313760880044230F400F40B7F2C00004C
:100904000130F40083120313300CF500F50C750C60
:100914000739013E8F2C0310F40DFF3E031D8D2C6F
:100924007408FF3AF6002E08840083172F1C8313E3
:100934007608800508000F30831203130606031996
:10094400A42CA52C3D2DE03086008619AA2CAB2CB6
:10095400B02C0130F0000030F1003F2D0619B32C0B
:10096400B42CB92C0230F0000030F1003F2D861871
:10097400BC2CBD2CC22C0330F0000030F1003F2D04
:100984000618C52CC62CCB2C0430F0000030F10026
:100994003F2DD03086008619D02CD12CD62C053092
:1009A400F0000030F1003F2D0619D92CDA2CDF2C91
:1009B4000630F0000030F1003F2D8618E22CE32CC5
:1009C400E82C0730F0000030F1003F2D0618EB2C26
:1009D400EC2CF12C0830F0000030F1003F2DB03049
:1009E40086008619F62CF72CFC2C0930F000003018
:1009F400F1003F2D0619FF2C002D052D0A30F000C3
:100A04000030F1003F2D8618082D092D0E2D0B30D6
:100A1400F0000030F1003F2D0618112D122D172D76
:100A24000C30F0000030F1003F2D70308600861944
:100A34001C2D1D2D222D0D30F0000030F1003F2D16
:100A44000619252D262D2B2D0E30F0000030F10037
:100A54003F2D86182E2D2F2D342D0F30F000003011
:100A6400F1003F2D0618372D382D3D2D1030F000A4
:100A74000030F1003F2DF001F10108002E30840018
:100A8400780883138000840A79088000840A7A082D
:100A94008000840A7B088000840A7C08800000307F
:100AA400831203132F06031D592D05302E06031D33
:100AB4005C2D5D2D612D8316031385017C2D003083
:100AC4002F06031D672D06302E06031D6A2D6B2D80
:100AD4006F2D8316031386017C2D00302F06031D12
:100AE400752D07302E06031D782D792DF52D8316CF
:100AF40003138701823083120313A100DD30A000A9
:100B0400A00B822DA10B822D03300A128A11A4237B
:100B14000A128A11213083120313A1007530A00038
:100B2400A00B922DA10B922D972D03300A128A113E
:100B3400A4230A128A11683083120313A100E3303C
:100B4400A000A00BA32DA10BA32DA82D03300A12E6
:100B54008A11A4230A128A1102300A128A11A423C8
:100B64000A128A1102300A128A11A4230A128A1163
:100B740008300A128A11A4230A128A1100300A12B8
:100B84008A11A4230A128A1106300A128A11A42394
:100B94000A128A11083083120313A0002008FD00F2
:100BA4007D157D08A00004300310A00CFF3E031D3A
:100BB400D62D20080F390A128A11A4230A128A1189
:100BC4007D080F390A128A11A4230A128A110030EF
:100BD4000A128A11A4230A128A1101300A128A11F4
:100BE400A4230A128A110800F300731CFA2DFB2DAA
:100BF400122E0130F0008312031331080739013E2D
:100C0400052E0310F00DFF3E031D032E7008F100A6
:100C14002E08840083172F1C831371088004292E47
:100C24000130F0008312031331080739013E1C2EF2
:100C34000310F00DFF3E031D1A2E7008FF3AF10059
:100C44002E08840083172F1C831371088005F31C5E
:100C54002C2E2D2E452E0130F000310CF100F10C1C
:100C6400710C0739013E382E0310F00DFF3E031DB1
:100C7400362E7008F2002E08840083172F1C83136D
:100C8400720880045D2E0130F000310CF100F10C8B
:100C9400710C0739013E502E0310F00DFF3E031D69
:100CA4004E2E7008FF3AF2002E08840083172F1C82
:100CB400831372088005731D602E612E762E013019
:100CC400F00032080739013E692E0310F00DFF3E93
:100CD400031D672E7008F1002E08840083172F1C53
:100CE4008313710880048B2E0130F0003208073919
:100CF400013E7E2E0310F00DFF3E031D7C2E700876
:100D0400FF3AF1002E08840083172F1C8313710807
:100D14008005F31D8E2E8F2EA72E0130F000320C8D
:100D2400F100F10C710C0739013E9A2E0310F00DFD
:100D3400FF3E031D982E7008F2002E0884008317CE
:100D44002F1C831372088004BF2E0130F000320C74
:100D5400F100F10C710C0739013EB22E0310F00DB5
:100D6400FF3E031DB02E7008FF3AF2002E088400E7
:100D740083172F1C83137208800508008312031342
:100D8400AC01AD0183160317890183120313860195
:100D94000F308316031386000F3095007F308100D7
:100DA40096012530840083120313330883138000D3
:100DB400840A34088000840A35088000840A3608CE
:100DC4008000840A37088000783084002508800079
:100DD400840A26088000840A27088000840A2808D8
:100DE4008000840A290880000A128A1140250A1208
:100DF4008A1100300A128A11A4230A128A110130BE
:100E04000A128A11A4230A128A110A128A119D2431
:100E14000A128A11710883120313AB007008AA0026
:100E2400632F0130AC000030AD009A2F0230AC00CB
:100E34000030AD009A2F0330AC000030AD009A2F83
:100E44000430AC000030AD009A2F0530AC00003007
:100E5400AD009A2F0630AC000030AD009A2F073059
:100E6400AC000030AD009A2F0830AC000030AD006B
:100E74009A2F0930AC000030AD009A2F0A30AC0034
:100E84000030AD009A2F0B30AC000030AD009A2F2B
:100E94000C30AC000030AD009A2F0D30AC000030A7
:100EA400AD009A2F0E30AC000030AD009A2F0F30F9
:100EB400AC000030AD009A2F1030AC000030AD0013
:100EC4009A2F2B08003A0319682F9A2F2A08013AFF
:100ED4000319132F033A0319182F013A03191D2F6D
:100EE400073A0319222F013A0319272F033A03194A
:100EF4002C2F013A0319312F0F3A0319362F013AD7
:100F040003193B2F033A0319402F013A0319452FC4
:100F1400073A03194A2F013A03194F2F033A0319C9
:100F2400542F013A0319592F1F3A03195E2F9A2F90
:100F340008300A128A11A4230A128A1103300A12F1
:100F44008A11A4230A128A1112300A128A117F23E9
:100F54000A128A1108300A128A11A4230A128A1169
:100F64000D300A128A11A4230A128A118312031360
:100F74002C08013E84000A128A1103200A128A11E5
:100F84000A128A11FF230A128A11033083120313EF
:100F9400A4008A30A3005530A200A20BCF2FA30BCC
:100FA400CF2FA40BCF2F072F0A128A1100280A1261
:100FB4008A117A230A128A11B3000A128A117B2336
:100FC4000A128A11B4000A128A117C230A128A11A5
:100FD400B5000A128A117D230A128A11B6000A1278
:100FE4008A117E230A128A11B700AE01AF01B00143
:0C0FF400B101B20183010A128A11C02E63
:02400E00F2209E
:00000001FF
