

Microchip MPLAB XC8 Assembler V2.32 build 20210201212658 
                                                                                               Mon Apr 19 15:58:08 2021

Microchip MPLAB XC8 C Compiler v2.32 (Free license) build 20210201212658 Og1 
     1                           	processor	16F887
     2                           	pagewidth 120
     3                           	opt	flic
     4                           	psect	idataBANK0,global,class=CODE,delta=2,noexec
     5                           	psect	strings,global,class=STRING,delta=2,noexec
     6                           	psect	cinit,global,class=CODE,merge=1,delta=2
     7                           	psect	bssBANK0,global,class=BANK0,space=1,delta=1,noexec
     8                           	psect	dataBANK0,global,class=BANK0,space=1,delta=1,noexec
     9                           	psect	cstackCOMMON,global,class=COMMON,space=1,delta=1,noexec
    10                           	psect	cstackBANK0,global,class=BANK0,space=1,delta=1,noexec
    11                           	psect	maintext,global,class=CODE,split=1,delta=2
    12                           	psect	text1,local,class=CODE,merge=1,delta=2
    13                           	psect	text2,local,class=CODE,merge=1,delta=2
    14                           	psect	text3,local,class=CODE,merge=1,delta=2
    15                           	psect	text4,local,class=CODE,merge=1,delta=2
    16                           	psect	text5,local,class=CODE,merge=1,delta=2
    17                           	psect	text6,local,class=CODE,merge=1,delta=2
    18                           	psect	config,global,abs,ovrld,class=CONFIG,space=4,delta=2,noexec
    19                           	dabs	1,0x7E,2
    20  0000                     
    21                           ; Version 2.20
    22                           ; Generated 12/02/2020 GMT
    23                           ; 
    24                           ; Copyright © 2020, Microchip Technology Inc. and its subsidiaries ("Microchip")
    25                           ; All rights reserved.
    26                           ; 
    27                           ; This software is developed by Microchip Technology Inc. and its subsidiaries ("Microch
      +                          ip").
    28                           ; 
    29                           ; Redistribution and use in source and binary forms, with or without modification, are
    30                           ; permitted provided that the following conditions are met:
    31                           ; 
    32                           ;     1. Redistributions of source code must retain the above copyright notice, this lis
      +                          t of
    33                           ;        conditions and the following disclaimer.
    34                           ; 
    35                           ;     2. Redistributions in binary form must reproduce the above copyright notice, this 
      +                          list
    36                           ;        of conditions and the following disclaimer in the documentation and/or other
    37                           ;        materials provided with the distribution.
    38                           ; 
    39                           ;     3. Microchip's name may not be used to endorse or promote products derived from th
      +                          is
    40                           ;        software without specific prior written permission.
    41                           ; 
    42                           ; THIS SOFTWARE IS PROVIDED BY MICROCHIP "AS IS" AND ANY EXPRESS OR IMPLIED WARRANTIES,
    43                           ; INCLUDING, BUT NOT LIMITED TO, THE IMPLIED WARRANTIES OF MERCHANTABILITY AND FITNESS F
      +                          OR
    44                           ; PURPOSE ARE DISCLAIMED.  IN NO EVENT SHALL MICROCHIP BE LIABLE FOR ANY DIRECT, INDIREC
      +                          T,
    45                           ; INCIDENTAL, SPECIAL, EXEMPLARY, OR CONSEQUENTIAL DAMAGES (INCLUDING BUT NOT LIMITED TO
    46                           ; PROCUREMENT OF SUBSTITUTE GOODS OR SERVICES; LOSS OF USE, DATA OR PROFITS; OR BUSINESS
    47                           ; INTERRUPTION) HOWSOEVER CAUSED AND ON ANY THEORY OF LIABILITY, WHETHER IN CONTRACT, ST
      +                          RICT
    48                           ; LIABILITY, OR TORT (INCLUDING NEGLIGENCE OR OTHERWISE) ARISING IN ANY WAY OUT OF THE U
      +                          SE OF
    49                           ; THIS SOFTWARE, EVEN IF ADVISED OF THE POSSIBILITY OF SUCH DAMAGE.
    50                           ; 
    51                           ; 
    52                           ; Code-generator required, PIC16F887 Definitions
    53                           ; 
    54                           ; SFR Addresses
    55  0000                     	;# 
    56  0001                     	;# 
    57  0002                     	;# 
    58  0003                     	;# 
    59  0004                     	;# 
    60  0005                     	;# 
    61  0006                     	;# 
    62  0007                     	;# 
    63  0008                     	;# 
    64  0009                     	;# 
    65  000A                     	;# 
    66  000B                     	;# 
    67  000C                     	;# 
    68  000D                     	;# 
    69  000E                     	;# 
    70  000E                     	;# 
    71  000F                     	;# 
    72  0010                     	;# 
    73  0011                     	;# 
    74  0012                     	;# 
    75  0013                     	;# 
    76  0014                     	;# 
    77  0015                     	;# 
    78  0015                     	;# 
    79  0016                     	;# 
    80  0017                     	;# 
    81  0018                     	;# 
    82  0019                     	;# 
    83  001A                     	;# 
    84  001B                     	;# 
    85  001B                     	;# 
    86  001C                     	;# 
    87  001D                     	;# 
    88  001E                     	;# 
    89  001F                     	;# 
    90  0081                     	;# 
    91  0085                     	;# 
    92  0086                     	;# 
    93  0087                     	;# 
    94  0088                     	;# 
    95  0089                     	;# 
    96  008C                     	;# 
    97  008D                     	;# 
    98  008E                     	;# 
    99  008F                     	;# 
   100  0090                     	;# 
   101  0091                     	;# 
   102  0092                     	;# 
   103  0093                     	;# 
   104  0093                     	;# 
   105  0093                     	;# 
   106  0094                     	;# 
   107  0095                     	;# 
   108  0096                     	;# 
   109  0097                     	;# 
   110  0098                     	;# 
   111  0099                     	;# 
   112  009A                     	;# 
   113  009B                     	;# 
   114  009C                     	;# 
   115  009D                     	;# 
   116  009E                     	;# 
   117  009F                     	;# 
   118  0105                     	;# 
   119  0107                     	;# 
   120  0108                     	;# 
   121  0109                     	;# 
   122  010C                     	;# 
   123  010C                     	;# 
   124  010D                     	;# 
   125  010E                     	;# 
   126  010F                     	;# 
   127  0185                     	;# 
   128  0187                     	;# 
   129  0188                     	;# 
   130  0189                     	;# 
   131  018C                     	;# 
   132  018D                     	;# 
   133  0000                     	;# 
   134  0001                     	;# 
   135  0002                     	;# 
   136  0003                     	;# 
   137  0004                     	;# 
   138  0005                     	;# 
   139  0006                     	;# 
   140  0007                     	;# 
   141  0008                     	;# 
   142  0009                     	;# 
   143  000A                     	;# 
   144  000B                     	;# 
   145  000C                     	;# 
   146  000D                     	;# 
   147  000E                     	;# 
   148  000E                     	;# 
   149  000F                     	;# 
   150  0010                     	;# 
   151  0011                     	;# 
   152  0012                     	;# 
   153  0013                     	;# 
   154  0014                     	;# 
   155  0015                     	;# 
   156  0015                     	;# 
   157  0016                     	;# 
   158  0017                     	;# 
   159  0018                     	;# 
   160  0019                     	;# 
   161  001A                     	;# 
   162  001B                     	;# 
   163  001B                     	;# 
   164  001C                     	;# 
   165  001D                     	;# 
   166  001E                     	;# 
   167  001F                     	;# 
   168  0081                     	;# 
   169  0085                     	;# 
   170  0086                     	;# 
   171  0087                     	;# 
   172  0088                     	;# 
   173  0089                     	;# 
   174  008C                     	;# 
   175  008D                     	;# 
   176  008E                     	;# 
   177  008F                     	;# 
   178  0090                     	;# 
   179  0091                     	;# 
   180  0092                     	;# 
   181  0093                     	;# 
   182  0093                     	;# 
   183  0093                     	;# 
   184  0094                     	;# 
   185  0095                     	;# 
   186  0096                     	;# 
   187  0097                     	;# 
   188  0098                     	;# 
   189  0099                     	;# 
   190  009A                     	;# 
   191  009B                     	;# 
   192  009C                     	;# 
   193  009D                     	;# 
   194  009E                     	;# 
   195  009F                     	;# 
   196  0105                     	;# 
   197  0107                     	;# 
   198  0108                     	;# 
   199  0109                     	;# 
   200  010C                     	;# 
   201  010C                     	;# 
   202  010D                     	;# 
   203  010E                     	;# 
   204  010F                     	;# 
   205  0185                     	;# 
   206  0187                     	;# 
   207  0188                     	;# 
   208  0189                     	;# 
   209  018C                     	;# 
   210  018D                     	;# 
   211  0000                     	;# 
   212  0001                     	;# 
   213  0002                     	;# 
   214  0003                     	;# 
   215  0004                     	;# 
   216  0005                     	;# 
   217  0006                     	;# 
   218  0007                     	;# 
   219  0008                     	;# 
   220  0009                     	;# 
   221  000A                     	;# 
   222  000B                     	;# 
   223  000C                     	;# 
   224  000D                     	;# 
   225  000E                     	;# 
   226  000E                     	;# 
   227  000F                     	;# 
   228  0010                     	;# 
   229  0011                     	;# 
   230  0012                     	;# 
   231  0013                     	;# 
   232  0014                     	;# 
   233  0015                     	;# 
   234  0015                     	;# 
   235  0016                     	;# 
   236  0017                     	;# 
   237  0018                     	;# 
   238  0019                     	;# 
   239  001A                     	;# 
   240  001B                     	;# 
   241  001B                     	;# 
   242  001C                     	;# 
   243  001D                     	;# 
   244  001E                     	;# 
   245  001F                     	;# 
   246  0081                     	;# 
   247  0085                     	;# 
   248  0086                     	;# 
   249  0087                     	;# 
   250  0088                     	;# 
   251  0089                     	;# 
   252  008C                     	;# 
   253  008D                     	;# 
   254  008E                     	;# 
   255  008F                     	;# 
   256  0090                     	;# 
   257  0091                     	;# 
   258  0092                     	;# 
   259  0093                     	;# 
   260  0093                     	;# 
   261  0093                     	;# 
   262  0094                     	;# 
   263  0095                     	;# 
   264  0096                     	;# 
   265  0097                     	;# 
   266  0098                     	;# 
   267  0099                     	;# 
   268  009A                     	;# 
   269  009B                     	;# 
   270  009C                     	;# 
   271  009D                     	;# 
   272  009E                     	;# 
   273  009F                     	;# 
   274  0105                     	;# 
   275  0107                     	;# 
   276  0108                     	;# 
   277  0109                     	;# 
   278  010C                     	;# 
   279  010C                     	;# 
   280  010D                     	;# 
   281  010E                     	;# 
   282  010F                     	;# 
   283  0185                     	;# 
   284  0187                     	;# 
   285  0188                     	;# 
   286  0189                     	;# 
   287  018C                     	;# 
   288  018D                     	;# 
   289                           
   290                           	psect	idataBANK0
   291  037A                     __pidataBANK0:
   292                           
   293                           ;initializer for main@F1472
   294  037A  3407               	retlw	7
   295  037B  3400               	retlw	0
   296  037C  341A               	retlw	26
   297  037D  342C               	retlw	44
   298  037E  343E               	retlw	62
   299                           
   300                           	psect	strings
   301  0003                     __pstrings:
   302  0003                     stringtab:
   303  0003                     __stringtab:
   304  0003                     stringcode:	
   305                           ;	String table - string pointers are 1 byte each
   306                           
   307  0003                     stringdir:
   308  0003  3000               	movlw	high stringdir
   309  0004  008A               	movwf	10
   310  0005  0804               	movf	4,w
   311  0006  0A84               	incf	4,f
   312  0007  0782               	addwf	2,f
   313  0008                     __stringbase:
   314  0008  3400               	retlw	0
   315  0009                     __end_of__stringtab:
   316  0009                     _text:
   317  0009  3420               	retlw	32
   318  000A  3437               	retlw	55
   319  000B  3438               	retlw	56
   320  000C  3439               	retlw	57
   321  000D  342F               	retlw	47
   322  000E  3434               	retlw	52
   323  000F  3435               	retlw	53
   324  0010  3436               	retlw	54
   325  0011  342A               	retlw	42
   326  0012  3431               	retlw	49
   327  0013  3432               	retlw	50
   328  0014  3433               	retlw	51
   329  0015  342D               	retlw	45
   330  0016  3463               	retlw	99
   331  0017  3430               	retlw	48
   332  0018  343D               	retlw	61
   333  0019  342B               	retlw	43
   334  001A                     __end_of_text:
   335  0005                     _PORTA	set	5
   336  0006                     _PORTB	set	6
   337  0007                     _PORTC	set	7
   338  0030                     _RB0	set	48
   339  0031                     _RB1	set	49
   340  0032                     _RB2	set	50
   341  0033                     _RB3	set	51
   342  0087                     _TRISC	set	135
   343  0085                     _TRISA	set	133
   344  0096                     _IOCB	set	150
   345  0081                     _OPTION_REG	set	129
   346  0095                     _WPUB	set	149
   347  0086                     _TRISB	set	134
   348  0189                     _ANSELH	set	393
   349  001A                     STR_1:
   350  001A  3420               	retlw	32	;' '
   351  001B  3454               	retlw	84	;'T'
   352  001C  3465               	retlw	101	;'e'
   353  001D  3463               	retlw	99	;'c'
   354  001E  346C               	retlw	108	;'l'
   355  001F  3461               	retlw	97	;'a'
   356  0020  343A               	retlw	58	;':'
   357  0021  3420               	retlw	32	;' '
   358  0022  3400               	retlw	0
   359                           
   360                           	psect	cinit
   361  07D9                     start_initialization:	
   362                           ; #config settings
   363                           
   364  07D9                     __initialization:
   365                           
   366                           ; Initialize objects allocated to BANK0
   367  07D9  120A  118A  237A  120A  118A  	fcall	__pidataBANK0	;fetch initializer
   368  07DE  00B3               	movwf	__pdataBANK0& (0+127)
   369  07DF  120A  118A  237B  120A  118A  	fcall	__pidataBANK0+1	;fetch initializer
   370  07E4  00B4               	movwf	(__pdataBANK0+1)& (0+127)
   371  07E5  120A  118A  237C  120A  118A  	fcall	__pidataBANK0+2	;fetch initializer
   372  07EA  00B5               	movwf	(__pdataBANK0+2)& (0+127)
   373  07EB  120A  118A  237D  120A  118A  	fcall	__pidataBANK0+3	;fetch initializer
   374  07F0  00B6               	movwf	(__pdataBANK0+3)& (0+127)
   375  07F1  120A  118A  237E  120A  118A  	fcall	__pidataBANK0+4	;fetch initializer
   376  07F6  00B7               	movwf	(__pdataBANK0+4)& (0+127)
   377                           
   378                           ; Clear objects allocated to BANK0
   379  07F7  01AE               	clrf	__pbssBANK0& (0+127)
   380  07F8  01AF               	clrf	(__pbssBANK0+1)& (0+127)
   381  07F9  01B0               	clrf	(__pbssBANK0+2)& (0+127)
   382  07FA  01B1               	clrf	(__pbssBANK0+3)& (0+127)
   383  07FB  01B2               	clrf	(__pbssBANK0+4)& (0+127)
   384  07FC                     end_of_initialization:	
   385                           ;End of C runtime variable initialization code
   386                           
   387  07FC                     __end_of__initialization:
   388  07FC  0183               	clrf	3
   389  07FD  120A  118A  2EC0   	ljmp	_main	;jump to C main() function
   390                           
   391                           	psect	bssBANK0
   392  002E                     __pbssBANK0:
   393  002E                     _lcd:
   394  002E                     	ds	5
   395                           
   396                           	psect	dataBANK0
   397  0033                     __pdataBANK0:
   398  0033                     main@F1472:
   399  0033                     	ds	5
   400                           
   401                           	psect	cstackCOMMON
   402  0070                     __pcstackCOMMON:
   403  0070                     ?_LCD_Write:
   404  0070                     ?_LCD_putrs:	
   405                           ; 1 bytes @ 0x0
   406                           
   407  0070                     ?_LCD_putc:	
   408                           ; 1 bytes @ 0x0
   409                           
   410  0070                     ?_LCD_Out:	
   411                           ; 1 bytes @ 0x0
   412                           
   413  0070                     ??_LCD_Out:	
   414                           ; 1 bytes @ 0x0
   415                           
   416  0070                     ?_leer_teclado:	
   417                           ; 1 bytes @ 0x0
   418                           
   419  0070                     ?_main:	
   420                           ; 2 bytes @ 0x0
   421                           
   422                           
   423                           ; 2 bytes @ 0x0
   424  0070                     	ds	2
   425  0072                     ??_leer_teclado:
   426                           
   427                           ; 1 bytes @ 0x2
   428  0072                     	ds	1
   429  0073                     LCD_Out@c:
   430                           
   431                           ; 1 bytes @ 0x3
   432  0073                     	ds	1
   433  0074                     ??_LCD_Write:
   434  0074                     ??_LCD_putc:	
   435                           ; 1 bytes @ 0x4
   436                           
   437                           
   438                           ; 1 bytes @ 0x4
   439  0074                     	ds	3
   440  0077                     LCD_Write@c:
   441  0077                     LCD_putc@c:	
   442                           ; 1 bytes @ 0x7
   443                           
   444                           
   445                           ; 1 bytes @ 0x7
   446  0077                     	ds	1
   447  0078                     ?_LCD_Init:
   448  0078                     ??_LCD_putrs:	
   449                           ; 1 bytes @ 0x8
   450                           
   451  0078                     LCD_putrs@i:	
   452                           ; 1 bytes @ 0x8
   453                           
   454  0078                     LCD_Init@display:	
   455                           ; 2 bytes @ 0x8
   456                           
   457                           
   458                           ; 5 bytes @ 0x8
   459  0078                     	ds	2
   460  007A                     LCD_putrs@a:
   461                           
   462                           ; 1 bytes @ 0xA
   463  007A                     	ds	3
   464  007D                     LCD_Init@cmd:
   465                           
   466                           ; 1 bytes @ 0xD
   467  007D                     	ds	1
   468                           
   469                           	psect	cstackBANK0
   470  0020                     __pcstackBANK0:
   471  0020                     ??_LCD_Init:
   472                           
   473                           ; 1 bytes @ 0x0
   474  0020                     	ds	2
   475  0022                     ??_main:
   476                           
   477                           ; 1 bytes @ 0x2
   478  0022                     	ds	3
   479  0025                     main@lcd:
   480                           
   481                           ; 5 bytes @ 0x5
   482  0025                     	ds	5
   483  002A                     main@teclado:
   484                           
   485                           ; 2 bytes @ 0xA
   486  002A                     	ds	2
   487  002C                     main@selector:
   488                           
   489                           ; 2 bytes @ 0xC
   490  002C                     	ds	2
   491                           
   492                           	psect	maintext
   493  06C0                     __pmaintext:	
   494 ;;
   495 ;;Main: autosize = 0, tempsize = 3, incstack = 0, save=0
   496 ;;
   497 ;; *************** function _main *****************
   498 ;; Defined at:
   499 ;;		line 74 in file "main.c"
   500 ;; Parameters:    Size  Location     Type
   501 ;;		None
   502 ;; Auto vars:     Size  Location     Type
   503 ;;  lcd             5    5[BANK0 ] struct .
   504 ;;  selector        2   12[BANK0 ] unsigned int 
   505 ;;  teclado         2   10[BANK0 ] unsigned int 
   506 ;; Return value:  Size  Location     Type
   507 ;;                  2   58[None  ] int 
   508 ;; Registers used:
   509 ;;		wreg, fsr0l, fsr0h, status,2, status,0, pclath, cstack
   510 ;; Tracked objects:
   511 ;;		On entry : B00/0
   512 ;;		On exit  : 0/0
   513 ;;		Unchanged: 0/0
   514 ;; Data sizes:     COMMON   BANK0   BANK1   BANK3   BANK2
   515 ;;      Params:         0       0       0       0       0
   516 ;;      Locals:         0       9       0       0       0
   517 ;;      Temps:          0       3       0       0       0
   518 ;;      Totals:         0      12       0       0       0
   519 ;;Total ram usage:       12 bytes
   520 ;; Hardware stack levels required when called: 3
   521 ;; This function calls:
   522 ;;		_LCD_Init
   523 ;;		_LCD_Write
   524 ;;		_LCD_putc
   525 ;;		_LCD_putrs
   526 ;;		_leer_teclado
   527 ;; This function is called by:
   528 ;;		Startup code after reset
   529 ;; This function uses a non-reentrant model
   530 ;;
   531                           
   532                           
   533                           ;psect for function _main
   534  06C0                     _main:
   535  06C0                     l1273:	
   536                           ;incstack = 0
   537                           ; Regs used in _main: [wreg-fsr0h+status,2+status,0+pclath+cstack]
   538                           
   539                           
   540                           ;main.c: 77:         switch(teclado)
   541  06C0  1283               	bcf	3,5	;RP0=0, select bank0
   542  06C1  1303               	bcf	3,6	;RP1=0, select bank0
   543  06C2  01AC               	clrf	main@selector
   544  06C3  01AD               	clrf	main@selector+1
   545                           
   546                           ;main.c: 79:             case 1:
   547  06C4  1683               	bsf	3,5	;RP0=1, select bank3
   548  06C5  1703               	bsf	3,6	;RP1=1, select bank3
   549  06C6  0189               	clrf	9	;volatile
   550                           
   551                           ;main.c: 80:                 selector = 1;
   552  06C7  1283               	bcf	3,5	;RP0=0, select bank0
   553  06C8  1303               	bcf	3,6	;RP1=0, select bank0
   554  06C9  0186               	clrf	6	;volatile
   555  06CA                     l1275:
   556                           
   557                           ;main.c: 81:                 break;
   558  06CA  300F               	movlw	15
   559  06CB  1683               	bsf	3,5	;RP0=1, select bank1
   560  06CC  1303               	bcf	3,6	;RP1=0, select bank1
   561  06CD  0086               	movwf	6	;volatile
   562  06CE                     l1277:
   563                           
   564                           ;main.c: 82:             case 2:
   565  06CE  300F               	movlw	15
   566  06CF  0095               	movwf	21	;volatile
   567  06D0                     l1279:
   568                           
   569                           ;main.c: 83:                 selector = 2;
   570  06D0  307F               	movlw	127
   571  06D1  0081               	movwf	1	;volatile
   572  06D2                     l1281:
   573                           
   574                           ;main.c: 84:                 break;
   575  06D2  0196               	clrf	22	;volatile
   576  06D3                     l1283:
   577                           
   578                           ;main.c: 86:                 selector = 3;
   579  06D3  3025               	movlw	main@lcd& (0+255)
   580  06D4  0084               	movwf	4
   581  06D5  1283               	bcf	3,5	;RP0=0, select bank0
   582  06D6  1303               	bcf	3,6	;RP1=0, select bank0
   583  06D7  0833               	movf	main@F1472,w
   584  06D8  1383               	bcf	3,7	;select IRP bank0
   585  06D9  0080               	movwf	0
   586  06DA  0A84               	incf	4,f
   587  06DB  0834               	movf	main@F1472+1,w
   588  06DC  0080               	movwf	0
   589  06DD  0A84               	incf	4,f
   590  06DE  0835               	movf	main@F1472+2,w
   591  06DF  0080               	movwf	0
   592  06E0  0A84               	incf	4,f
   593  06E1  0836               	movf	main@F1472+3,w
   594  06E2  0080               	movwf	0
   595  06E3  0A84               	incf	4,f
   596  06E4  0837               	movf	main@F1472+4,w
   597  06E5  0080               	movwf	0
   598  06E6                     l1285:
   599                           
   600                           ;main.c: 88:             case 4:
   601  06E6  3078               	movlw	LCD_Init@display& (0+255)
   602  06E7  0084               	movwf	4
   603  06E8  0825               	movf	main@lcd,w
   604  06E9  0080               	movwf	0
   605  06EA  0A84               	incf	4,f
   606  06EB  0826               	movf	main@lcd+1,w
   607  06EC  0080               	movwf	0
   608  06ED  0A84               	incf	4,f
   609  06EE  0827               	movf	main@lcd+2,w
   610  06EF  0080               	movwf	0
   611  06F0  0A84               	incf	4,f
   612  06F1  0828               	movf	main@lcd+3,w
   613  06F2  0080               	movwf	0
   614  06F3  0A84               	incf	4,f
   615  06F4  0829               	movf	main@lcd+4,w
   616  06F5  0080               	movwf	0
   617  06F6  120A  118A  2540  120A  118A  	fcall	_LCD_Init
   618  06FB                     l1287:
   619  06FB  3000               	movlw	0
   620  06FC  120A  118A  23A4  120A  118A  	fcall	_LCD_Write
   621  0701                     l1289:
   622  0701  3001               	movlw	1
   623  0702  120A  118A  23A4  120A  118A  	fcall	_LCD_Write
   624  0707                     l1291:
   625                           
   626                           ;main.c: 93:                 break;;main.c: 94:             case 6:
   627  0707  120A  118A  249D  120A  118A  	fcall	_leer_teclado
   628  070C  0871               	movf	?_leer_teclado+1,w
   629  070D  1283               	bcf	3,5	;RP0=0, select bank0
   630  070E  1303               	bcf	3,6	;RP1=0, select bank0
   631  070F  00AB               	movwf	main@teclado+1
   632  0710  0870               	movf	?_leer_teclado,w
   633  0711  00AA               	movwf	main@teclado
   634                           
   635                           ;main.c: 96:                 break;
   636  0712  2F63               	goto	l1327
   637  0713                     l1293:
   638                           
   639                           ;main.c: 99:                 break;
   640  0713  3001               	movlw	1
   641  0714  00AC               	movwf	main@selector
   642  0715  3000               	movlw	0
   643  0716  00AD               	movwf	main@selector+1
   644                           
   645                           ;main.c: 100:             case 8:
   646  0717  2F9A               	goto	l1329
   647  0718                     l1295:
   648                           
   649                           ;main.c: 102:                 break;
   650  0718  3002               	movlw	2
   651  0719  00AC               	movwf	main@selector
   652  071A  3000               	movlw	0
   653  071B  00AD               	movwf	main@selector+1
   654                           
   655                           ;main.c: 103:             case 9:
   656  071C  2F9A               	goto	l1329
   657  071D                     l1297:
   658                           
   659                           ;main.c: 105:                 break;
   660  071D  3003               	movlw	3
   661  071E  00AC               	movwf	main@selector
   662  071F  3000               	movlw	0
   663  0720  00AD               	movwf	main@selector+1
   664                           
   665                           ;main.c: 106:             case 10:
   666  0721  2F9A               	goto	l1329
   667  0722                     l1299:
   668                           
   669                           ;main.c: 108:                 break;
   670  0722  3004               	movlw	4
   671  0723  00AC               	movwf	main@selector
   672  0724  3000               	movlw	0
   673  0725  00AD               	movwf	main@selector+1
   674                           
   675                           ;main.c: 109:             case 11:
   676  0726  2F9A               	goto	l1329
   677  0727                     l1301:
   678                           
   679                           ;main.c: 111:                 break;
   680  0727  3005               	movlw	5
   681  0728  00AC               	movwf	main@selector
   682  0729  3000               	movlw	0
   683  072A  00AD               	movwf	main@selector+1
   684                           
   685                           ;main.c: 112:             case 12:
   686  072B  2F9A               	goto	l1329
   687  072C                     l1303:
   688                           
   689                           ;main.c: 114:                 break;
   690  072C  3006               	movlw	6
   691  072D  00AC               	movwf	main@selector
   692  072E  3000               	movlw	0
   693  072F  00AD               	movwf	main@selector+1
   694                           
   695                           ;main.c: 115:             case 13:
   696  0730  2F9A               	goto	l1329
   697  0731                     l1305:
   698                           
   699                           ;main.c: 117:                 break;
   700  0731  3007               	movlw	7
   701  0732  00AC               	movwf	main@selector
   702  0733  3000               	movlw	0
   703  0734  00AD               	movwf	main@selector+1
   704                           
   705                           ;main.c: 118:             case 14:
   706  0735  2F9A               	goto	l1329
   707  0736                     l1307:
   708                           
   709                           ;main.c: 120:                 break;
   710  0736  3008               	movlw	8
   711  0737  00AC               	movwf	main@selector
   712  0738  3000               	movlw	0
   713  0739  00AD               	movwf	main@selector+1
   714                           
   715                           ;main.c: 121:             case 15:
   716  073A  2F9A               	goto	l1329
   717  073B                     l1309:
   718                           
   719                           ;main.c: 123:                 break;
   720  073B  3009               	movlw	9
   721  073C  00AC               	movwf	main@selector
   722  073D  3000               	movlw	0
   723  073E  00AD               	movwf	main@selector+1
   724                           
   725                           ;main.c: 124:             case 16:
   726  073F  2F9A               	goto	l1329
   727  0740                     l1311:
   728                           
   729                           ;main.c: 126:                 break;
   730  0740  300A               	movlw	10
   731  0741  00AC               	movwf	main@selector
   732  0742  3000               	movlw	0
   733  0743  00AD               	movwf	main@selector+1
   734                           
   735                           ;main.c: 127:         }
   736  0744  2F9A               	goto	l1329
   737  0745                     l1313:
   738                           
   739                           ;main.c: 129:         do { if ( 0 == 0 ) { do { LCD_Write( (0x80 + 3 & 0xF0) >> 4 ); LCD
      +                          _Write( 0x80 + 3 & 0x0F); } while ( 0 ); } else if ( 0 == 1 ) { do { LCD_Write( (0xC0 + 
      +                          3 & 0xF0) >> 4 ); LCD_Write( 0xC0 + 3 & 0x0F); } while ( 0 ); } else if ( 0 == 2 ) { do 
      +                          { LCD_Write( (0x94 + 3 & 0xF0) >> 4 ); LCD_Write( 0x94 + 3 & 0x0F); } while ( 0 ); } els
      +                          e if ( 0 == 3 ) { do { LCD_Write( (0xD4 + 3 & 0xF0) >> 4 ); LCD_Write( 0xD4 + 3 & 0x0F);
      +                           } while ( 0 ); } } while ( 0 );
   740  0745  300B               	movlw	11
   741  0746  00AC               	movwf	main@selector
   742  0747  3000               	movlw	0
   743  0748  00AD               	movwf	main@selector+1
   744                           
   745                           ;main.c: 130:         LCD_putrs(" Tecla: ");
   746  0749  2F9A               	goto	l1329
   747  074A                     l1315:
   748                           
   749                           ;main.c: 132:         do { if ( 0 == 0 ) { do { LCD_Write( (0x80 + 13 & 0xF0) >> 4 ); LC
      +                          D_Write( 0x80 + 13 & 0x0F); } while ( 0 ); } else if ( 0 == 1 ) { do { LCD_Write( (0xC0 
      +                          + 13 & 0xF0) >> 4 ); LCD_Write( 0xC0 + 13 & 0x0F); } while ( 0 ); } else if ( 0 == 2 ) {
      +                           do { LCD_Write( (0x94 + 13 & 0xF0) >> 4 ); LCD_Write( 0x94 + 13 & 0x0F); } while ( 0 );
      +                           } else if ( 0 == 3 ) { do { LCD_Write( (0xD4 + 13 & 0xF0) >> 4 ); LCD_Write( 0xD4 + 13 
      +                          & 0x0F); } while ( 0 ); } } while ( 0 );
   750  074A  300C               	movlw	12
   751  074B  00AC               	movwf	main@selector
   752  074C  3000               	movlw	0
   753  074D  00AD               	movwf	main@selector+1
   754                           
   755                           ;main.c: 133:         LCD_putc(text[selector]);
   756  074E  2F9A               	goto	l1329
   757  074F                     l1317:
   758                           
   759                           ;main.c: 135: 
   760  074F  300D               	movlw	13
   761  0750  00AC               	movwf	main@selector
   762  0751  3000               	movlw	0
   763  0752  00AD               	movwf	main@selector+1
   764                           
   765                           ;main.c: 136:  }
   766  0753  2F9A               	goto	l1329
   767  0754                     l1319:
   768                           
   769                           ;main.c: 138:     return 0;
   770  0754  300E               	movlw	14
   771  0755  00AC               	movwf	main@selector
   772  0756  3000               	movlw	0
   773  0757  00AD               	movwf	main@selector+1
   774                           
   775                           ;main.c: 139: }
   776  0758  2F9A               	goto	l1329
   777  0759                     l1321:
   778  0759  300F               	movlw	15
   779  075A  00AC               	movwf	main@selector
   780  075B  3000               	movlw	0
   781  075C  00AD               	movwf	main@selector+1
   782  075D  2F9A               	goto	l1329
   783  075E                     l1323:
   784  075E  3010               	movlw	16
   785  075F  00AC               	movwf	main@selector
   786  0760  3000               	movlw	0
   787  0761  00AD               	movwf	main@selector+1
   788  0762  2F9A               	goto	l1329
   789  0763                     l1327:
   790                           
   791                           ; Switch on 2 bytes has been partitioned into a top level switch of size 1, and 1 sub-sw
      +                          itches
   792                           ; Switch size 1, requested type "simple"
   793                           ; Number of cases is 1, Range of values is 0 to 0
   794                           ; switch strategies available:
   795                           ; Name         Instructions Cycles
   796                           ; simple_byte            4     3 (average)
   797                           ; direct_byte           11     8 (fixed)
   798                           ; jumptable            260     6 (fixed)
   799                           ;	Chosen strategy is simple_byte
   800  0763  082B               	movf	main@teclado+1,w
   801  0764  3A00               	xorlw	0	; case 0
   802  0765  1903               	skipnz
   803  0766  2F68               	goto	l1389
   804  0767  2F9A               	goto	l1329
   805  0768                     l1389:
   806                           
   807                           ; Switch size 1, requested type "simple"
   808                           ; Number of cases is 16, Range of values is 1 to 16
   809                           ; switch strategies available:
   810                           ; Name         Instructions Cycles
   811                           ; simple_byte           49    25 (average)
   812                           ; direct_byte           59    11 (fixed)
   813                           ; jumptable            263     9 (fixed)
   814                           ;	Chosen strategy is simple_byte
   815  0768  082A               	movf	main@teclado,w
   816  0769  3A01               	xorlw	1	; case 1
   817  076A  1903               	skipnz
   818  076B  2F13               	goto	l1293
   819  076C  3A03               	xorlw	3	; case 2
   820  076D  1903               	skipnz
   821  076E  2F18               	goto	l1295
   822  076F  3A01               	xorlw	1	; case 3
   823  0770  1903               	skipnz
   824  0771  2F1D               	goto	l1297
   825  0772  3A07               	xorlw	7	; case 4
   826  0773  1903               	skipnz
   827  0774  2F22               	goto	l1299
   828  0775  3A01               	xorlw	1	; case 5
   829  0776  1903               	skipnz
   830  0777  2F27               	goto	l1301
   831  0778  3A03               	xorlw	3	; case 6
   832  0779  1903               	skipnz
   833  077A  2F2C               	goto	l1303
   834  077B  3A01               	xorlw	1	; case 7
   835  077C  1903               	skipnz
   836  077D  2F31               	goto	l1305
   837  077E  3A0F               	xorlw	15	; case 8
   838  077F  1903               	skipnz
   839  0780  2F36               	goto	l1307
   840  0781  3A01               	xorlw	1	; case 9
   841  0782  1903               	skipnz
   842  0783  2F3B               	goto	l1309
   843  0784  3A03               	xorlw	3	; case 10
   844  0785  1903               	skipnz
   845  0786  2F40               	goto	l1311
   846  0787  3A01               	xorlw	1	; case 11
   847  0788  1903               	skipnz
   848  0789  2F45               	goto	l1313
   849  078A  3A07               	xorlw	7	; case 12
   850  078B  1903               	skipnz
   851  078C  2F4A               	goto	l1315
   852  078D  3A01               	xorlw	1	; case 13
   853  078E  1903               	skipnz
   854  078F  2F4F               	goto	l1317
   855  0790  3A03               	xorlw	3	; case 14
   856  0791  1903               	skipnz
   857  0792  2F54               	goto	l1319
   858  0793  3A01               	xorlw	1	; case 15
   859  0794  1903               	skipnz
   860  0795  2F59               	goto	l1321
   861  0796  3A1F               	xorlw	31	; case 16
   862  0797  1903               	skipnz
   863  0798  2F5E               	goto	l1323
   864  0799  2F9A               	goto	l1329
   865  079A                     l1329:
   866  079A  3008               	movlw	8
   867  079B  120A  118A  23A4  120A  118A  	fcall	_LCD_Write
   868  07A0  3003               	movlw	3
   869  07A1  120A  118A  23A4  120A  118A  	fcall	_LCD_Write
   870  07A6                     l98:
   871  07A6  3012               	movlw	(low ((STR_1-__stringbase)| (0+32768)))& (0+255)
   872  07A7  120A  118A  237F  120A  118A  	fcall	_LCD_putrs
   873  07AC                     l101:
   874  07AC  3008               	movlw	8
   875  07AD  120A  118A  23A4  120A  118A  	fcall	_LCD_Write
   876  07B2  300D               	movlw	13
   877  07B3  120A  118A  23A4  120A  118A  	fcall	_LCD_Write
   878  07B8                     l115:
   879  07B8  1283               	bcf	3,5	;RP0=0, select bank0
   880  07B9  1303               	bcf	3,6	;RP1=0, select bank0
   881  07BA  082C               	movf	main@selector,w
   882  07BB  3E01               	addlw	low ((_text-__stringbase)| (0+32768))
   883  07BC  0084               	movwf	4
   884  07BD  120A  118A  2003  120A  118A  	fcall	stringdir
   885  07C2  120A  118A  23FF  120A  118A  	fcall	_LCD_putc
   886  07C7                     l1343:
   887  07C7  3003               	movlw	3
   888  07C8  1283               	bcf	3,5	;RP0=0, select bank0
   889  07C9  1303               	bcf	3,6	;RP1=0, select bank0
   890  07CA  00A4               	movwf	??_main+2
   891  07CB  308A               	movlw	138
   892  07CC  00A3               	movwf	??_main+1
   893  07CD  3055               	movlw	85
   894  07CE  00A2               	movwf	??_main
   895  07CF                     u897:
   896  07CF  0BA2               	decfsz	??_main,f
   897  07D0  2FCF               	goto	u897
   898  07D1  0BA3               	decfsz	??_main+1,f
   899  07D2  2FCF               	goto	u897
   900  07D3  0BA4               	decfsz	??_main+2,f
   901  07D4  2FCF               	goto	u897
   902  07D5  2F07               	goto	l1291
   903  07D6  120A  118A  2800   	ljmp	start
   904  07D9                     __end_of_main:
   905                           
   906                           	psect	text1
   907  049D                     __ptext1:	
   908 ;; *************** function _leer_teclado *****************
   909 ;; Defined at:
   910 ;;		line 26 in file "main.c"
   911 ;; Parameters:    Size  Location     Type
   912 ;;		None
   913 ;; Auto vars:     Size  Location     Type
   914 ;;		None
   915 ;; Return value:  Size  Location     Type
   916 ;;                  2    0[COMMON] unsigned int 
   917 ;; Registers used:
   918 ;;		wreg, status,2, status,0
   919 ;; Tracked objects:
   920 ;;		On entry : 0/0
   921 ;;		On exit  : 0/0
   922 ;;		Unchanged: 0/0
   923 ;; Data sizes:     COMMON   BANK0   BANK1   BANK3   BANK2
   924 ;;      Params:         2       0       0       0       0
   925 ;;      Locals:         0       0       0       0       0
   926 ;;      Temps:          0       0       0       0       0
   927 ;;      Totals:         2       0       0       0       0
   928 ;;Total ram usage:        2 bytes
   929 ;; Hardware stack levels used: 1
   930 ;; This function calls:
   931 ;;		Nothing
   932 ;; This function is called by:
   933 ;;		_main
   934 ;; This function uses a non-reentrant model
   935 ;;
   936                           
   937                           
   938                           ;psect for function _leer_teclado
   939  049D                     _leer_teclado:
   940  049D                     l1133:	
   941                           ;incstack = 0
   942                           ; Regs used in _leer_teclado: [wreg+status,2+status,0]
   943                           
   944                           
   945                           ;main.c: 28:         if(RB0 == 0)
   946  049D  300F               	movlw	15
   947  049E  1283               	bcf	3,5	;RP0=0, select bank0
   948  049F  1303               	bcf	3,6	;RP1=0, select bank0
   949  04A0  0606               	xorwf	6,w	;volatile
   950  04A1  1903               	btfsc	3,2
   951  04A2  2CA4               	goto	u661
   952  04A3  2CA5               	goto	u660
   953  04A4                     u661:
   954  04A4  2D3D               	goto	l1215
   955  04A5                     u660:
   956  04A5                     l1135:
   957                           
   958                           ;main.c: 29:             return 8;;main.c: 30: 
   959  04A5  30E0               	movlw	224
   960  04A6  0086               	movwf	6	;volatile
   961  04A7                     l1137:
   962                           
   963                           ;main.c: 31:         PORTB = 0xB0;
   964  04A7  1986               	btfsc	6,3	;volatile
   965  04A8  2CAA               	goto	u671
   966  04A9  2CAB               	goto	u670
   967  04AA                     u671:
   968  04AA  2CB0               	goto	l38
   969  04AB                     u670:
   970  04AB                     l1139:
   971                           
   972                           ;main.c: 32:         if(RB3 == 0)
   973  04AB  3001               	movlw	1
   974  04AC  00F0               	movwf	?_leer_teclado
   975  04AD  3000               	movlw	0
   976  04AE  00F1               	movwf	?_leer_teclado+1
   977  04AF  2D3F               	goto	l39
   978  04B0                     l38:
   979                           
   980                           ;main.c: 33:             return 9;
   981  04B0  1906               	btfsc	6,2	;volatile
   982  04B1  2CB3               	goto	u681
   983  04B2  2CB4               	goto	u680
   984  04B3                     u681:
   985  04B3  2CB9               	goto	l40
   986  04B4                     u680:
   987  04B4                     l1143:
   988                           
   989                           ;main.c: 34:         if(RB2 == 0)
   990  04B4  3002               	movlw	2
   991  04B5  00F0               	movwf	?_leer_teclado
   992  04B6  3000               	movlw	0
   993  04B7  00F1               	movwf	?_leer_teclado+1
   994  04B8  2D3F               	goto	l39
   995  04B9                     l40:
   996                           
   997                           ;main.c: 35:             return 10;
   998  04B9  1886               	btfsc	6,1	;volatile
   999  04BA  2CBC               	goto	u691
  1000  04BB  2CBD               	goto	u690
  1001  04BC                     u691:
  1002  04BC  2CC2               	goto	l41
  1003  04BD                     u690:
  1004  04BD                     l1147:
  1005                           
  1006                           ;main.c: 36:         if(RB1 == 0)
  1007  04BD  3003               	movlw	3
  1008  04BE  00F0               	movwf	?_leer_teclado
  1009  04BF  3000               	movlw	0
  1010  04C0  00F1               	movwf	?_leer_teclado+1
  1011  04C1  2D3F               	goto	l39
  1012  04C2                     l41:
  1013                           
  1014                           ;main.c: 37:             return 11;
  1015  04C2  1806               	btfsc	6,0	;volatile
  1016  04C3  2CC5               	goto	u701
  1017  04C4  2CC6               	goto	u700
  1018  04C5                     u701:
  1019  04C5  2CCB               	goto	l1155
  1020  04C6                     u700:
  1021  04C6                     l1151:
  1022                           
  1023                           ;main.c: 38:         if(RB0 == 0)
  1024  04C6  3004               	movlw	4
  1025  04C7  00F0               	movwf	?_leer_teclado
  1026  04C8  3000               	movlw	0
  1027  04C9  00F1               	movwf	?_leer_teclado+1
  1028  04CA  2D3F               	goto	l39
  1029  04CB                     l1155:
  1030                           
  1031                           ;main.c: 40: 
  1032  04CB  30D0               	movlw	208
  1033  04CC  0086               	movwf	6	;volatile
  1034  04CD                     l1157:
  1035                           
  1036                           ;main.c: 41:         PORTB = 0x70;
  1037  04CD  1986               	btfsc	6,3	;volatile
  1038  04CE  2CD0               	goto	u711
  1039  04CF  2CD1               	goto	u710
  1040  04D0                     u711:
  1041  04D0  2CD6               	goto	l43
  1042  04D1                     u710:
  1043  04D1                     l1159:
  1044                           
  1045                           ;main.c: 42:         if(RB3 == 0)
  1046  04D1  3005               	movlw	5
  1047  04D2  00F0               	movwf	?_leer_teclado
  1048  04D3  3000               	movlw	0
  1049  04D4  00F1               	movwf	?_leer_teclado+1
  1050  04D5  2D3F               	goto	l39
  1051  04D6                     l43:
  1052                           
  1053                           ;main.c: 43:             return 13;
  1054  04D6  1906               	btfsc	6,2	;volatile
  1055  04D7  2CD9               	goto	u721
  1056  04D8  2CDA               	goto	u720
  1057  04D9                     u721:
  1058  04D9  2CDF               	goto	l44
  1059  04DA                     u720:
  1060  04DA                     l1163:
  1061                           
  1062                           ;main.c: 44:         if(RB2 == 0)
  1063  04DA  3006               	movlw	6
  1064  04DB  00F0               	movwf	?_leer_teclado
  1065  04DC  3000               	movlw	0
  1066  04DD  00F1               	movwf	?_leer_teclado+1
  1067  04DE  2D3F               	goto	l39
  1068  04DF                     l44:
  1069                           
  1070                           ;main.c: 45:             return 14;
  1071  04DF  1886               	btfsc	6,1	;volatile
  1072  04E0  2CE2               	goto	u731
  1073  04E1  2CE3               	goto	u730
  1074  04E2                     u731:
  1075  04E2  2CE8               	goto	l45
  1076  04E3                     u730:
  1077  04E3                     l1167:
  1078                           
  1079                           ;main.c: 46:         if(RB1 == 0)
  1080  04E3  3007               	movlw	7
  1081  04E4  00F0               	movwf	?_leer_teclado
  1082  04E5  3000               	movlw	0
  1083  04E6  00F1               	movwf	?_leer_teclado+1
  1084  04E7  2D3F               	goto	l39
  1085  04E8                     l45:
  1086                           
  1087                           ;main.c: 47:             return 15;
  1088  04E8  1806               	btfsc	6,0	;volatile
  1089  04E9  2CEB               	goto	u741
  1090  04EA  2CEC               	goto	u740
  1091  04EB                     u741:
  1092  04EB  2CF1               	goto	l1175
  1093  04EC                     u740:
  1094  04EC                     l1171:
  1095                           
  1096                           ;main.c: 48:         if(RB0 == 0)
  1097  04EC  3008               	movlw	8
  1098  04ED  00F0               	movwf	?_leer_teclado
  1099  04EE  3000               	movlw	0
  1100  04EF  00F1               	movwf	?_leer_teclado+1
  1101  04F0  2D3F               	goto	l39
  1102  04F1                     l1175:
  1103                           
  1104                           ;main.c: 50:     }
  1105  04F1  30B0               	movlw	176
  1106  04F2  0086               	movwf	6	;volatile
  1107  04F3                     l1177:
  1108                           
  1109                           ;main.c: 51: 
  1110  04F3  1986               	btfsc	6,3	;volatile
  1111  04F4  2CF6               	goto	u751
  1112  04F5  2CF7               	goto	u750
  1113  04F6                     u751:
  1114  04F6  2CFC               	goto	l47
  1115  04F7                     u750:
  1116  04F7                     l1179:
  1117                           
  1118                           ;main.c: 52:     return 0;
  1119  04F7  3009               	movlw	9
  1120  04F8  00F0               	movwf	?_leer_teclado
  1121  04F9  3000               	movlw	0
  1122  04FA  00F1               	movwf	?_leer_teclado+1
  1123  04FB  2D3F               	goto	l39
  1124  04FC                     l47:
  1125                           
  1126                           ;main.c: 53: }
  1127  04FC  1906               	btfsc	6,2	;volatile
  1128  04FD  2CFF               	goto	u761
  1129  04FE  2D00               	goto	u760
  1130  04FF                     u761:
  1131  04FF  2D05               	goto	l48
  1132  0500                     u760:
  1133  0500                     l1183:
  1134                           
  1135                           ;main.c: 54: 
  1136  0500  300A               	movlw	10
  1137  0501  00F0               	movwf	?_leer_teclado
  1138  0502  3000               	movlw	0
  1139  0503  00F1               	movwf	?_leer_teclado+1
  1140  0504  2D3F               	goto	l39
  1141  0505                     l48:
  1142                           
  1143                           ;main.c: 55: int main ( void )
  1144  0505  1886               	btfsc	6,1	;volatile
  1145  0506  2D08               	goto	u771
  1146  0507  2D09               	goto	u770
  1147  0508                     u771:
  1148  0508  2D0E               	goto	l49
  1149  0509                     u770:
  1150  0509                     l1187:
  1151                           
  1152                           ;main.c: 56: {
  1153  0509  300B               	movlw	11
  1154  050A  00F0               	movwf	?_leer_teclado
  1155  050B  3000               	movlw	0
  1156  050C  00F1               	movwf	?_leer_teclado+1
  1157  050D  2D3F               	goto	l39
  1158  050E                     l49:
  1159                           
  1160                           ;main.c: 57:     unsigned int teclado = 0;
  1161  050E  1806               	btfsc	6,0	;volatile
  1162  050F  2D11               	goto	u781
  1163  0510  2D12               	goto	u780
  1164  0511                     u781:
  1165  0511  2D17               	goto	l1195
  1166  0512                     u780:
  1167  0512                     l1191:
  1168                           
  1169                           ;main.c: 58:     unsigned int selector = 0;
  1170  0512  300C               	movlw	12
  1171  0513  00F0               	movwf	?_leer_teclado
  1172  0514  3000               	movlw	0
  1173  0515  00F1               	movwf	?_leer_teclado+1
  1174  0516  2D3F               	goto	l39
  1175  0517                     l1195:
  1176                           
  1177                           ;main.c: 60:     ANSELH = 0x00;
  1178  0517  3070               	movlw	112
  1179  0518  0086               	movwf	6	;volatile
  1180  0519                     l1197:
  1181                           
  1182                           ;main.c: 61:     PORTB = 0x00;
  1183  0519  1986               	btfsc	6,3	;volatile
  1184  051A  2D1C               	goto	u791
  1185  051B  2D1D               	goto	u790
  1186  051C                     u791:
  1187  051C  2D22               	goto	l51
  1188  051D                     u790:
  1189  051D                     l1199:
  1190                           
  1191                           ;main.c: 62:     TRISB = 0x0F;
  1192  051D  300D               	movlw	13
  1193  051E  00F0               	movwf	?_leer_teclado
  1194  051F  3000               	movlw	0
  1195  0520  00F1               	movwf	?_leer_teclado+1
  1196  0521  2D3F               	goto	l39
  1197  0522                     l51:
  1198                           
  1199                           ;main.c: 63:     WPUB = 0x0F;
  1200  0522  1906               	btfsc	6,2	;volatile
  1201  0523  2D25               	goto	u801
  1202  0524  2D26               	goto	u800
  1203  0525                     u801:
  1204  0525  2D2B               	goto	l52
  1205  0526                     u800:
  1206  0526                     l1203:
  1207                           
  1208                           ;main.c: 64:     OPTION_REG = 0x7F;
  1209  0526  300E               	movlw	14
  1210  0527  00F0               	movwf	?_leer_teclado
  1211  0528  3000               	movlw	0
  1212  0529  00F1               	movwf	?_leer_teclado+1
  1213  052A  2D3F               	goto	l39
  1214  052B                     l52:
  1215                           
  1216                           ;main.c: 65:     IOCB = 0x00;
  1217  052B  1886               	btfsc	6,1	;volatile
  1218  052C  2D2E               	goto	u811
  1219  052D  2D2F               	goto	u810
  1220  052E                     u811:
  1221  052E  2D34               	goto	l53
  1222  052F                     u810:
  1223  052F                     l1207:
  1224                           
  1225                           ;main.c: 66: 
  1226  052F  300F               	movlw	15
  1227  0530  00F0               	movwf	?_leer_teclado
  1228  0531  3000               	movlw	0
  1229  0532  00F1               	movwf	?_leer_teclado+1
  1230  0533  2D3F               	goto	l39
  1231  0534                     l53:
  1232                           
  1233                           ;main.c: 67:     LCD lcd = { &PORTC, 2, 3, 4, 5, 6, 7 };
  1234  0534  1806               	btfsc	6,0	;volatile
  1235  0535  2D37               	goto	u821
  1236  0536  2D38               	goto	u820
  1237  0537                     u821:
  1238  0537  2D3D               	goto	l1215
  1239  0538                     u820:
  1240  0538                     l1211:
  1241                           
  1242                           ;main.c: 68: 
  1243  0538  3010               	movlw	16
  1244  0539  00F0               	movwf	?_leer_teclado
  1245  053A  3000               	movlw	0
  1246  053B  00F1               	movwf	?_leer_teclado+1
  1247  053C  2D3F               	goto	l39
  1248  053D                     l1215:
  1249                           
  1250                           ;main.c: 71:     do { LCD_Write( (0x01 & 0xF0) >> 4 ); LCD_Write( 0x01 & 0x0F); } while 
      +                          ( 0 );
  1251  053D  01F0               	clrf	?_leer_teclado
  1252  053E  01F1               	clrf	?_leer_teclado+1
  1253  053F                     l39:
  1254  053F  0008               	return
  1255  0540                     __end_of_leer_teclado:
  1256                           
  1257                           	psect	text2
  1258  037F                     __ptext2:	
  1259 ;; *************** function _LCD_putrs *****************
  1260 ;; Defined at:
  1261 ;;		line 144 in file "lcd.c"
  1262 ;; Parameters:    Size  Location     Type
  1263 ;;  a               1    wreg     PTR const unsigned char 
  1264 ;;		 -> STR_1(9), 
  1265 ;; Auto vars:     Size  Location     Type
  1266 ;;  a               1   10[COMMON] PTR const unsigned char 
  1267 ;;		 -> STR_1(9), 
  1268 ;;  i               2    8[COMMON] int 
  1269 ;; Return value:  Size  Location     Type
  1270 ;;                  1    wreg      void 
  1271 ;; Registers used:
  1272 ;;		wreg, fsr0l, fsr0h, status,2, status,0, pclath, cstack
  1273 ;; Tracked objects:
  1274 ;;		On entry : 0/0
  1275 ;;		On exit  : 0/0
  1276 ;;		Unchanged: 0/0
  1277 ;; Data sizes:     COMMON   BANK0   BANK1   BANK3   BANK2
  1278 ;;      Params:         0       0       0       0       0
  1279 ;;      Locals:         3       0       0       0       0
  1280 ;;      Temps:          0       0       0       0       0
  1281 ;;      Totals:         3       0       0       0       0
  1282 ;;Total ram usage:        3 bytes
  1283 ;; Hardware stack levels used: 1
  1284 ;; Hardware stack levels required when called: 2
  1285 ;; This function calls:
  1286 ;;		_LCD_putc
  1287 ;; This function is called by:
  1288 ;;		_main
  1289 ;; This function uses a non-reentrant model
  1290 ;;
  1291                           
  1292                           
  1293                           ;psect for function _LCD_putrs
  1294  037F                     _LCD_putrs:
  1295                           
  1296                           ;incstack = 0
  1297                           ; Regs used in _LCD_putrs: [wreg-fsr0h+status,2+status,0+pclath+cstack]
  1298                           ;LCD_putrs@a stored from wreg
  1299  037F  00FA               	movwf	LCD_putrs@a
  1300  0380                     l1265:
  1301                           
  1302                           ;lcd.c: 146:     for ( int i = 0; a[i] != '\0'; ++i ) {
  1303  0380  01F8               	clrf	LCD_putrs@i
  1304  0381  01F9               	clrf	LCD_putrs@i+1
  1305  0382  2B96               	goto	l1271
  1306  0383                     l1267:
  1307                           
  1308                           ;lcd.c: 147:         LCD_putc(a[i]);
  1309  0383  0878               	movf	LCD_putrs@i,w
  1310  0384  077A               	addwf	LCD_putrs@a,w
  1311  0385  0084               	movwf	4
  1312  0386  120A  118A  2003  120A  118A  	fcall	stringdir
  1313  038B  120A  118A  23FF  120A  118A  	fcall	_LCD_putc
  1314  0390                     l1269:
  1315                           
  1316                           ;lcd.c: 148:     }
  1317  0390  3001               	movlw	1
  1318  0391  07F8               	addwf	LCD_putrs@i,f
  1319  0392  1803               	skipnc
  1320  0393  0AF9               	incf	LCD_putrs@i+1,f
  1321  0394  3000               	movlw	0
  1322  0395  07F9               	addwf	LCD_putrs@i+1,f
  1323  0396                     l1271:
  1324  0396  0878               	movf	LCD_putrs@i,w
  1325  0397  077A               	addwf	LCD_putrs@a,w
  1326  0398  0084               	movwf	4
  1327  0399  120A  118A  2003  120A  118A  	fcall	stringdir
  1328  039E  3A00               	xorlw	0
  1329  039F  1D03               	skipz
  1330  03A0  2BA2               	goto	u871
  1331  03A1  2BA3               	goto	u870
  1332  03A2                     u871:
  1333  03A2  2B83               	goto	l1267
  1334  03A3                     u870:
  1335  03A3                     l185:
  1336  03A3  0008               	return
  1337  03A4                     __end_of_LCD_putrs:
  1338                           
  1339                           	psect	text3
  1340  03FF                     __ptext3:	
  1341 ;; *************** function _LCD_putc *****************
  1342 ;; Defined at:
  1343 ;;		line 119 in file "lcd.c"
  1344 ;; Parameters:    Size  Location     Type
  1345 ;;  c               1    wreg     unsigned char 
  1346 ;; Auto vars:     Size  Location     Type
  1347 ;;  c               1    7[COMMON] unsigned char 
  1348 ;; Return value:  Size  Location     Type
  1349 ;;                  1    wreg      void 
  1350 ;; Registers used:
  1351 ;;		wreg, fsr0l, fsr0h, status,2, status,0, pclath, cstack
  1352 ;; Tracked objects:
  1353 ;;		On entry : 0/0
  1354 ;;		On exit  : 0/0
  1355 ;;		Unchanged: 0/0
  1356 ;; Data sizes:     COMMON   BANK0   BANK1   BANK3   BANK2
  1357 ;;      Params:         0       0       0       0       0
  1358 ;;      Locals:         1       0       0       0       0
  1359 ;;      Temps:          3       0       0       0       0
  1360 ;;      Totals:         4       0       0       0       0
  1361 ;;Total ram usage:        4 bytes
  1362 ;; Hardware stack levels used: 1
  1363 ;; Hardware stack levels required when called: 1
  1364 ;; This function calls:
  1365 ;;		_LCD_Out
  1366 ;; This function is called by:
  1367 ;;		_main
  1368 ;;		_LCD_putrs
  1369 ;;		_LCD_puts
  1370 ;; This function uses a non-reentrant model
  1371 ;;
  1372                           
  1373                           
  1374                           ;psect for function _LCD_putc
  1375  03FF                     _LCD_putc:
  1376                           
  1377                           ;incstack = 0
  1378                           ; Regs used in _LCD_putc: [wreg-fsr0h+status,2+status,0+pclath+cstack]
  1379                           ;LCD_putc@c stored from wreg
  1380  03FF  00F7               	movwf	LCD_putc@c
  1381  0400                     l1117:
  1382                           
  1383                           ;lcd.c: 121:    *(lcd.PORT) |= 1 << lcd.RS;
  1384  0400  3001               	movlw	1
  1385  0401  00F4               	movwf	??_LCD_putc
  1386  0402  1283               	bcf	3,5	;RP0=0, select bank0
  1387  0403  1303               	bcf	3,6	;RP1=0, select bank0
  1388  0404  0830               	movf	_lcd+2,w
  1389  0405  3907               	andlw	7
  1390  0406  3E01               	addlw	1
  1391  0407  2C0A               	goto	u604
  1392  0408                     u605:
  1393  0408  1003               	clrc
  1394  0409  0DF4               	rlf	??_LCD_putc,f
  1395  040A                     u604:
  1396  040A  3EFF               	addlw	-1
  1397  040B  1D03               	skipz
  1398  040C  2C08               	goto	u605
  1399  040D  0874               	movf	??_LCD_putc,w
  1400  040E  00F5               	movwf	??_LCD_putc+1
  1401  040F  082E               	movf	_lcd,w
  1402  0410  0084               	movwf	4
  1403  0411  1783               	bsf	3,7
  1404  0412  1C2F               	btfss	_lcd+1,0
  1405  0413  1383               	bcf	3,7
  1406  0414  0875               	movf	??_LCD_putc+1,w
  1407  0415  0480               	iorwf	0,f
  1408  0416                     l1119:
  1409                           
  1410                           ;lcd.c: 122:     LCD_Out((c & 0xF0) >> 4);
  1411  0416  0877               	movf	LCD_putc@c,w
  1412  0417  00F4               	movwf	??_LCD_putc
  1413  0418  3004               	movlw	4
  1414  0419                     u615:
  1415  0419  1003               	clrc
  1416  041A  0CF4               	rrf	??_LCD_putc,f
  1417  041B  3EFF               	addlw	-1
  1418  041C  1D03               	skipz
  1419  041D  2C19               	goto	u615
  1420  041E  0874               	movf	??_LCD_putc,w
  1421  041F  390F               	andlw	15
  1422  0420  120A  118A  25F6  120A  118A  	fcall	_LCD_Out
  1423  0425                     l1121:
  1424                           
  1425                           ;lcd.c: 124:     *(lcd.PORT) |= 1 << lcd.EN;
  1426  0425  3001               	movlw	1
  1427  0426  00F4               	movwf	??_LCD_putc
  1428  0427  1283               	bcf	3,5	;RP0=0, select bank0
  1429  0428  1303               	bcf	3,6	;RP1=0, select bank0
  1430  0429  0C30               	rrf	_lcd+2,w
  1431  042A  00F5               	movwf	??_LCD_putc+1
  1432  042B  0CF5               	rrf	??_LCD_putc+1,f
  1433  042C  0C75               	rrf	??_LCD_putc+1,w
  1434  042D  3907               	andlw	7
  1435  042E  3E01               	addlw	1
  1436  042F  2C32               	goto	u624
  1437  0430                     u625:
  1438  0430  1003               	clrc
  1439  0431  0DF4               	rlf	??_LCD_putc,f
  1440  0432                     u624:
  1441  0432  3EFF               	addlw	-1
  1442  0433  1D03               	skipz
  1443  0434  2C30               	goto	u625
  1444  0435  0874               	movf	??_LCD_putc,w
  1445  0436  00F6               	movwf	??_LCD_putc+2
  1446  0437  082E               	movf	_lcd,w
  1447  0438  0084               	movwf	4
  1448  0439  1783               	bsf	3,7
  1449  043A  1C2F               	btfss	_lcd+1,0
  1450  043B  1383               	bcf	3,7
  1451  043C  0876               	movf	??_LCD_putc+2,w
  1452  043D  0480               	iorwf	0,f
  1453  043E                     l1123:
  1454                           
  1455                           ;lcd.c: 125:     _delay((unsigned long)((40)*(20000000/4000000.0)));
  1456  043E  3042               	movlw	66
  1457  043F  00F4               	movwf	??_LCD_putc
  1458  0440                     u907:
  1459  0440  0BF4               	decfsz	??_LCD_putc,f
  1460  0441  2C40               	goto	u907
  1461  0442  0000               	nop
  1462  0443                     l1125:
  1463                           
  1464                           ;lcd.c: 126:     *(lcd.PORT) &= ~(1 << lcd.EN);
  1465  0443  3001               	movlw	1
  1466  0444  00F4               	movwf	??_LCD_putc
  1467  0445  1283               	bcf	3,5	;RP0=0, select bank0
  1468  0446  1303               	bcf	3,6	;RP1=0, select bank0
  1469  0447  0C30               	rrf	_lcd+2,w
  1470  0448  00F5               	movwf	??_LCD_putc+1
  1471  0449  0CF5               	rrf	??_LCD_putc+1,f
  1472  044A  0C75               	rrf	??_LCD_putc+1,w
  1473  044B  3907               	andlw	7
  1474  044C  3E01               	addlw	1
  1475  044D  2C50               	goto	u634
  1476  044E                     u635:
  1477  044E  1003               	clrc
  1478  044F  0DF4               	rlf	??_LCD_putc,f
  1479  0450                     u634:
  1480  0450  3EFF               	addlw	-1
  1481  0451  1D03               	skipz
  1482  0452  2C4E               	goto	u635
  1483  0453  0874               	movf	??_LCD_putc,w
  1484  0454  3AFF               	xorlw	255
  1485  0455  00F6               	movwf	??_LCD_putc+2
  1486  0456  082E               	movf	_lcd,w
  1487  0457  0084               	movwf	4
  1488  0458  1783               	bsf	3,7
  1489  0459  1C2F               	btfss	_lcd+1,0
  1490  045A  1383               	bcf	3,7
  1491  045B  0876               	movf	??_LCD_putc+2,w
  1492  045C  0580               	andwf	0,f
  1493  045D                     l1127:
  1494                           
  1495                           ;lcd.c: 128:     LCD_Out(c & 0x0F);
  1496  045D  0877               	movf	LCD_putc@c,w
  1497  045E  390F               	andlw	15
  1498  045F  120A  118A  25F6  120A  118A  	fcall	_LCD_Out
  1499  0464                     l1129:
  1500                           
  1501                           ;lcd.c: 130:     *(lcd.PORT) |= 1 << lcd.EN;
  1502  0464  3001               	movlw	1
  1503  0465  00F4               	movwf	??_LCD_putc
  1504  0466  1283               	bcf	3,5	;RP0=0, select bank0
  1505  0467  1303               	bcf	3,6	;RP1=0, select bank0
  1506  0468  0C30               	rrf	_lcd+2,w
  1507  0469  00F5               	movwf	??_LCD_putc+1
  1508  046A  0CF5               	rrf	??_LCD_putc+1,f
  1509  046B  0C75               	rrf	??_LCD_putc+1,w
  1510  046C  3907               	andlw	7
  1511  046D  3E01               	addlw	1
  1512  046E  2C71               	goto	u644
  1513  046F                     u645:
  1514  046F  1003               	clrc
  1515  0470  0DF4               	rlf	??_LCD_putc,f
  1516  0471                     u644:
  1517  0471  3EFF               	addlw	-1
  1518  0472  1D03               	skipz
  1519  0473  2C6F               	goto	u645
  1520  0474  0874               	movf	??_LCD_putc,w
  1521  0475  00F6               	movwf	??_LCD_putc+2
  1522  0476  082E               	movf	_lcd,w
  1523  0477  0084               	movwf	4
  1524  0478  1783               	bsf	3,7
  1525  0479  1C2F               	btfss	_lcd+1,0
  1526  047A  1383               	bcf	3,7
  1527  047B  0876               	movf	??_LCD_putc+2,w
  1528  047C  0480               	iorwf	0,f
  1529                           
  1530                           ;lcd.c: 131:     _delay((unsigned long)((40)*(20000000/4000000.0)));
  1531  047D  3042               	movlw	66
  1532  047E  00F4               	movwf	??_LCD_putc
  1533  047F                     u917:
  1534  047F  0BF4               	decfsz	??_LCD_putc,f
  1535  0480  2C7F               	goto	u917
  1536  0481  0000               	nop
  1537  0482                     l1131:
  1538                           
  1539                           ;lcd.c: 132:     *(lcd.PORT) &= ~(1 << lcd.EN);
  1540  0482  3001               	movlw	1
  1541  0483  00F4               	movwf	??_LCD_putc
  1542  0484  1283               	bcf	3,5	;RP0=0, select bank0
  1543  0485  1303               	bcf	3,6	;RP1=0, select bank0
  1544  0486  0C30               	rrf	_lcd+2,w
  1545  0487  00F5               	movwf	??_LCD_putc+1
  1546  0488  0CF5               	rrf	??_LCD_putc+1,f
  1547  0489  0C75               	rrf	??_LCD_putc+1,w
  1548  048A  3907               	andlw	7
  1549  048B  3E01               	addlw	1
  1550  048C  2C8F               	goto	u654
  1551  048D                     u655:
  1552  048D  1003               	clrc
  1553  048E  0DF4               	rlf	??_LCD_putc,f
  1554  048F                     u654:
  1555  048F  3EFF               	addlw	-1
  1556  0490  1D03               	skipz
  1557  0491  2C8D               	goto	u655
  1558  0492  0874               	movf	??_LCD_putc,w
  1559  0493  3AFF               	xorlw	255
  1560  0494  00F6               	movwf	??_LCD_putc+2
  1561  0495  082E               	movf	_lcd,w
  1562  0496  0084               	movwf	4
  1563  0497  1783               	bsf	3,7
  1564  0498  1C2F               	btfss	_lcd+1,0
  1565  0499  1383               	bcf	3,7
  1566  049A  0876               	movf	??_LCD_putc+2,w
  1567  049B  0580               	andwf	0,f
  1568  049C                     l173:
  1569  049C  0008               	return
  1570  049D                     __end_of_LCD_putc:
  1571                           
  1572                           	psect	text4
  1573  0540                     __ptext4:	
  1574 ;; *************** function _LCD_Init *****************
  1575 ;; Defined at:
  1576 ;;		line 61 in file "lcd.c"
  1577 ;; Parameters:    Size  Location     Type
  1578 ;;  display         5    8[COMMON] struct .
  1579 ;; Auto vars:     Size  Location     Type
  1580 ;;  cmd             1   13[COMMON] unsigned char 
  1581 ;; Return value:  Size  Location     Type
  1582 ;;                  1    wreg      _Bool 
  1583 ;; Registers used:
  1584 ;;		wreg, fsr0l, fsr0h, status,2, status,0, pclath, cstack
  1585 ;; Tracked objects:
  1586 ;;		On entry : 0/0
  1587 ;;		On exit  : 0/0
  1588 ;;		Unchanged: 0/0
  1589 ;; Data sizes:     COMMON   BANK0   BANK1   BANK3   BANK2
  1590 ;;      Params:         5       0       0       0       0
  1591 ;;      Locals:         1       0       0       0       0
  1592 ;;      Temps:          0       2       0       0       0
  1593 ;;      Totals:         6       2       0       0       0
  1594 ;;Total ram usage:        8 bytes
  1595 ;; Hardware stack levels used: 1
  1596 ;; Hardware stack levels required when called: 2
  1597 ;; This function calls:
  1598 ;;		_LCD_Write
  1599 ;; This function is called by:
  1600 ;;		_main
  1601 ;; This function uses a non-reentrant model
  1602 ;;
  1603                           
  1604                           
  1605                           ;psect for function _LCD_Init
  1606  0540                     _LCD_Init:
  1607  0540                     l1219:	
  1608                           ;incstack = 0
  1609                           ; Regs used in _LCD_Init: [wreg-fsr0h+status,2+status,0+pclath+cstack]
  1610                           
  1611                           
  1612                           ;lcd.c: 63:     lcd = display;
  1613  0540  302E               	movlw	_lcd& (0+255)
  1614  0541  0084               	movwf	4
  1615  0542  0878               	movf	LCD_Init@display,w
  1616  0543  1383               	bcf	3,7	;select IRP bank0
  1617  0544  0080               	movwf	0
  1618  0545  0A84               	incf	4,f
  1619  0546  0879               	movf	LCD_Init@display+1,w
  1620  0547  0080               	movwf	0
  1621  0548  0A84               	incf	4,f
  1622  0549  087A               	movf	LCD_Init@display+2,w
  1623  054A  0080               	movwf	0
  1624  054B  0A84               	incf	4,f
  1625  054C  087B               	movf	LCD_Init@display+3,w
  1626  054D  0080               	movwf	0
  1627  054E  0A84               	incf	4,f
  1628  054F  087C               	movf	LCD_Init@display+4,w
  1629  0550  0080               	movwf	0
  1630  0551                     l1221:
  1631                           
  1632                           ;lcd.c: 72:     if ( lcd.PORT == &PORTA ) {
  1633  0551  3000               	movlw	0
  1634  0552  1283               	bcf	3,5	;RP0=0, select bank0
  1635  0553  1303               	bcf	3,6	;RP1=0, select bank0
  1636  0554  062F               	xorwf	_lcd+1,w
  1637  0555  1D03               	skipz
  1638  0556  2D59               	goto	u835
  1639  0557  3005               	movlw	5
  1640  0558  062E               	xorwf	_lcd,w
  1641  0559                     u835:
  1642  0559  1D03               	skipz
  1643  055A  2D5C               	goto	u831
  1644  055B  2D5D               	goto	u830
  1645  055C                     u831:
  1646  055C  2D61               	goto	l1225
  1647  055D                     u830:
  1648  055D                     l1223:
  1649                           
  1650                           ;lcd.c: 73:         TRISA = 0x00;
  1651  055D  1683               	bsf	3,5	;RP0=1, select bank1
  1652  055E  1303               	bcf	3,6	;RP1=0, select bank1
  1653  055F  0185               	clrf	5	;volatile
  1654                           
  1655                           ;lcd.c: 74:     }
  1656  0560  2D7C               	goto	l1233
  1657  0561                     l1225:
  1658  0561  3000               	movlw	0
  1659  0562  062F               	xorwf	_lcd+1,w
  1660  0563  1D03               	skipz
  1661  0564  2D67               	goto	u845
  1662  0565  3006               	movlw	6
  1663  0566  062E               	xorwf	_lcd,w
  1664  0567                     u845:
  1665  0567  1D03               	skipz
  1666  0568  2D6A               	goto	u841
  1667  0569  2D6B               	goto	u840
  1668  056A                     u841:
  1669  056A  2D6F               	goto	l1229
  1670  056B                     u840:
  1671  056B                     l1227:
  1672                           
  1673                           ;lcd.c: 76:         TRISB = 0x00;
  1674  056B  1683               	bsf	3,5	;RP0=1, select bank1
  1675  056C  1303               	bcf	3,6	;RP1=0, select bank1
  1676  056D  0186               	clrf	6	;volatile
  1677                           
  1678                           ;lcd.c: 77:     }
  1679  056E  2D7C               	goto	l1233
  1680  056F                     l1229:
  1681  056F  3000               	movlw	0
  1682  0570  062F               	xorwf	_lcd+1,w
  1683  0571  1D03               	skipz
  1684  0572  2D75               	goto	u855
  1685  0573  3007               	movlw	7
  1686  0574  062E               	xorwf	_lcd,w
  1687  0575                     u855:
  1688  0575  1D03               	skipz
  1689  0576  2D78               	goto	u851
  1690  0577  2D79               	goto	u850
  1691  0578                     u851:
  1692  0578  2DF5               	goto	l157
  1693  0579                     u850:
  1694  0579                     l1231:
  1695                           
  1696                           ;lcd.c: 79:         TRISC = 0x00;
  1697  0579  1683               	bsf	3,5	;RP0=1, select bank1
  1698  057A  1303               	bcf	3,6	;RP1=0, select bank1
  1699  057B  0187               	clrf	7	;volatile
  1700  057C                     l1233:	
  1701                           ;lcd.c: 80:     }
  1702                           
  1703                           
  1704                           ;lcd.c: 94:     _delay((unsigned long)((20)*(20000000/4000.0)));
  1705  057C  3082               	movlw	130
  1706  057D  1283               	bcf	3,5	;RP0=0, select bank0
  1707  057E  1303               	bcf	3,6	;RP1=0, select bank0
  1708  057F  00A1               	movwf	??_LCD_Init+1
  1709  0580  30DD               	movlw	221
  1710  0581  00A0               	movwf	??_LCD_Init
  1711  0582                     u927:
  1712  0582  0BA0               	decfsz	??_LCD_Init,f
  1713  0583  2D82               	goto	u927
  1714  0584  0BA1               	decfsz	??_LCD_Init+1,f
  1715  0585  2D82               	goto	u927
  1716  0586                     l1235:
  1717                           
  1718                           ;lcd.c: 97:     LCD_Write(0x03);
  1719  0586  3003               	movlw	3
  1720  0587  120A  118A  23A4  120A  118A  	fcall	_LCD_Write
  1721  058C                     l1237:
  1722                           
  1723                           ;lcd.c: 98:     _delay((unsigned long)((5)*(20000000/4000.0)));
  1724  058C  3021               	movlw	33
  1725  058D  1283               	bcf	3,5	;RP0=0, select bank0
  1726  058E  1303               	bcf	3,6	;RP1=0, select bank0
  1727  058F  00A1               	movwf	??_LCD_Init+1
  1728  0590  3075               	movlw	117
  1729  0591  00A0               	movwf	??_LCD_Init
  1730  0592                     u937:
  1731  0592  0BA0               	decfsz	??_LCD_Init,f
  1732  0593  2D92               	goto	u937
  1733  0594  0BA1               	decfsz	??_LCD_Init+1,f
  1734  0595  2D92               	goto	u937
  1735  0596  2D97               	nop2
  1736                           
  1737                           ;lcd.c: 99:     LCD_Write(0x03);
  1738  0597  3003               	movlw	3
  1739  0598  120A  118A  23A4  120A  118A  	fcall	_LCD_Write
  1740  059D                     l1239:
  1741                           
  1742                           ;lcd.c: 100:     _delay((unsigned long)((16)*(20000000/4000.0)));
  1743  059D  3068               	movlw	104
  1744  059E  1283               	bcf	3,5	;RP0=0, select bank0
  1745  059F  1303               	bcf	3,6	;RP1=0, select bank0
  1746  05A0  00A1               	movwf	??_LCD_Init+1
  1747  05A1  30E3               	movlw	227
  1748  05A2  00A0               	movwf	??_LCD_Init
  1749  05A3                     u947:
  1750  05A3  0BA0               	decfsz	??_LCD_Init,f
  1751  05A4  2DA3               	goto	u947
  1752  05A5  0BA1               	decfsz	??_LCD_Init+1,f
  1753  05A6  2DA3               	goto	u947
  1754  05A7  2DA8               	nop2
  1755  05A8                     l1241:
  1756                           
  1757                           ;lcd.c: 101:     LCD_Write(0x03);
  1758  05A8  3003               	movlw	3
  1759  05A9  120A  118A  23A4  120A  118A  	fcall	_LCD_Write
  1760  05AE                     l1243:
  1761                           
  1762                           ;lcd.c: 104:     LCD_Write(0x02);
  1763  05AE  3002               	movlw	2
  1764  05AF  120A  118A  23A4  120A  118A  	fcall	_LCD_Write
  1765  05B4                     l1245:
  1766  05B4  3002               	movlw	2
  1767  05B5  120A  118A  23A4  120A  118A  	fcall	_LCD_Write
  1768  05BA                     l1247:
  1769  05BA  3008               	movlw	8
  1770  05BB  120A  118A  23A4  120A  118A  	fcall	_LCD_Write
  1771  05C0                     l1249:
  1772  05C0  3000               	movlw	0
  1773  05C1  120A  118A  23A4  120A  118A  	fcall	_LCD_Write
  1774  05C6                     l1251:
  1775  05C6  3006               	movlw	6
  1776  05C7  120A  118A  23A4  120A  118A  	fcall	_LCD_Write
  1777  05CC                     l1253:
  1778  05CC  3008               	movlw	8
  1779  05CD  1283               	bcf	3,5	;RP0=0, select bank0
  1780  05CE  1303               	bcf	3,6	;RP1=0, select bank0
  1781  05CF  00A0               	movwf	??_LCD_Init
  1782  05D0  0820               	movf	??_LCD_Init,w
  1783  05D1  00FD               	movwf	LCD_Init@cmd
  1784  05D2                     l1255:
  1785  05D2  157D               	bsf	LCD_Init@cmd,2
  1786  05D3                     l1261:
  1787  05D3  087D               	movf	LCD_Init@cmd,w
  1788  05D4  00A0               	movwf	??_LCD_Init
  1789  05D5  3004               	movlw	4
  1790  05D6                     u865:
  1791  05D6  1003               	clrc
  1792  05D7  0CA0               	rrf	??_LCD_Init,f
  1793  05D8  3EFF               	addlw	-1
  1794  05D9  1D03               	skipz
  1795  05DA  2DD6               	goto	u865
  1796  05DB  0820               	movf	??_LCD_Init,w
  1797  05DC  390F               	andlw	15
  1798  05DD  120A  118A  23A4  120A  118A  	fcall	_LCD_Write
  1799  05E2  087D               	movf	LCD_Init@cmd,w
  1800  05E3  390F               	andlw	15
  1801  05E4  120A  118A  23A4  120A  118A  	fcall	_LCD_Write
  1802  05E9                     l169:	
  1803                           ;lcd.c: 114:     do { LCD_Write( (0x01 & 0xF0) >> 4 ); LCD_Write( 0x01 & 0x0F); } while 
      +                          ( 0 );
  1804                           
  1805  05E9  3000               	movlw	0
  1806  05EA  120A  118A  23A4  120A  118A  	fcall	_LCD_Write
  1807  05EF  3001               	movlw	1
  1808  05F0  120A  118A  23A4  120A  118A  	fcall	_LCD_Write
  1809  05F5                     l157:
  1810  05F5  0008               	return
  1811  05F6                     __end_of_LCD_Init:
  1812                           
  1813                           	psect	text5
  1814  03A4                     __ptext5:	
  1815 ;; *************** function _LCD_Write *****************
  1816 ;; Defined at:
  1817 ;;		line 50 in file "lcd.c"
  1818 ;; Parameters:    Size  Location     Type
  1819 ;;  c               1    wreg     unsigned char 
  1820 ;; Auto vars:     Size  Location     Type
  1821 ;;  c               1    7[COMMON] unsigned char 
  1822 ;; Return value:  Size  Location     Type
  1823 ;;                  1    wreg      void 
  1824 ;; Registers used:
  1825 ;;		wreg, fsr0l, fsr0h, status,2, status,0, pclath, cstack
  1826 ;; Tracked objects:
  1827 ;;		On entry : 0/0
  1828 ;;		On exit  : 0/0
  1829 ;;		Unchanged: 0/0
  1830 ;; Data sizes:     COMMON   BANK0   BANK1   BANK3   BANK2
  1831 ;;      Params:         0       0       0       0       0
  1832 ;;      Locals:         1       0       0       0       0
  1833 ;;      Temps:          3       0       0       0       0
  1834 ;;      Totals:         4       0       0       0       0
  1835 ;;Total ram usage:        4 bytes
  1836 ;; Hardware stack levels used: 1
  1837 ;; Hardware stack levels required when called: 1
  1838 ;; This function calls:
  1839 ;;		_LCD_Out
  1840 ;; This function is called by:
  1841 ;;		_main
  1842 ;;		_LCD_Init
  1843 ;; This function uses a non-reentrant model
  1844 ;;
  1845                           
  1846                           
  1847                           ;psect for function _LCD_Write
  1848  03A4                     _LCD_Write:
  1849                           
  1850                           ;incstack = 0
  1851                           ; Regs used in _LCD_Write: [wreg-fsr0h+status,2+status,0+pclath+cstack]
  1852                           ;LCD_Write@c stored from wreg
  1853  03A4  00F7               	movwf	LCD_Write@c
  1854  03A5                     l1107:
  1855                           
  1856                           ;lcd.c: 52:     *(lcd.PORT) &= ~(1 << lcd.RS);
  1857  03A5  3001               	movlw	1
  1858  03A6  00F4               	movwf	??_LCD_Write
  1859  03A7  1283               	bcf	3,5	;RP0=0, select bank0
  1860  03A8  1303               	bcf	3,6	;RP1=0, select bank0
  1861  03A9  0830               	movf	_lcd+2,w
  1862  03AA  3907               	andlw	7
  1863  03AB  3E01               	addlw	1
  1864  03AC  2BAF               	goto	u574
  1865  03AD                     u575:
  1866  03AD  1003               	clrc
  1867  03AE  0DF4               	rlf	??_LCD_Write,f
  1868  03AF                     u574:
  1869  03AF  3EFF               	addlw	-1
  1870  03B0  1D03               	skipz
  1871  03B1  2BAD               	goto	u575
  1872  03B2  0874               	movf	??_LCD_Write,w
  1873  03B3  3AFF               	xorlw	255
  1874  03B4  00F5               	movwf	??_LCD_Write+1
  1875  03B5  082E               	movf	_lcd,w
  1876  03B6  0084               	movwf	4
  1877  03B7  1783               	bsf	3,7
  1878  03B8  1C2F               	btfss	_lcd+1,0
  1879  03B9  1383               	bcf	3,7
  1880  03BA  0875               	movf	??_LCD_Write+1,w
  1881  03BB  0580               	andwf	0,f
  1882  03BC                     l1109:
  1883                           
  1884                           ;lcd.c: 53:     LCD_Out(c);
  1885  03BC  0877               	movf	LCD_Write@c,w
  1886  03BD  120A  118A  25F6  120A  118A  	fcall	_LCD_Out
  1887  03C2                     l1111:
  1888                           
  1889                           ;lcd.c: 55:     *(lcd.PORT) |= 1 << lcd.EN;
  1890  03C2  3001               	movlw	1
  1891  03C3  00F4               	movwf	??_LCD_Write
  1892  03C4  1283               	bcf	3,5	;RP0=0, select bank0
  1893  03C5  1303               	bcf	3,6	;RP1=0, select bank0
  1894  03C6  0C30               	rrf	_lcd+2,w
  1895  03C7  00F5               	movwf	??_LCD_Write+1
  1896  03C8  0CF5               	rrf	??_LCD_Write+1,f
  1897  03C9  0C75               	rrf	??_LCD_Write+1,w
  1898  03CA  3907               	andlw	7
  1899  03CB  3E01               	addlw	1
  1900  03CC  2BCF               	goto	u584
  1901  03CD                     u585:
  1902  03CD  1003               	clrc
  1903  03CE  0DF4               	rlf	??_LCD_Write,f
  1904  03CF                     u584:
  1905  03CF  3EFF               	addlw	-1
  1906  03D0  1D03               	skipz
  1907  03D1  2BCD               	goto	u585
  1908  03D2  0874               	movf	??_LCD_Write,w
  1909  03D3  00F6               	movwf	??_LCD_Write+2
  1910  03D4  082E               	movf	_lcd,w
  1911  03D5  0084               	movwf	4
  1912  03D6  1783               	bsf	3,7
  1913  03D7  1C2F               	btfss	_lcd+1,0
  1914  03D8  1383               	bcf	3,7
  1915  03D9  0876               	movf	??_LCD_Write+2,w
  1916  03DA  0480               	iorwf	0,f
  1917  03DB                     l1113:
  1918                           
  1919                           ;lcd.c: 56:     _delay((unsigned long)((4)*(20000000/4000.0)));
  1920  03DB  301A               	movlw	26
  1921  03DC  00F5               	movwf	??_LCD_Write+1
  1922  03DD  30F8               	movlw	248
  1923  03DE  00F4               	movwf	??_LCD_Write
  1924  03DF                     u957:
  1925  03DF  0BF4               	decfsz	??_LCD_Write,f
  1926  03E0  2BDF               	goto	u957
  1927  03E1  0BF5               	decfsz	??_LCD_Write+1,f
  1928  03E2  2BDF               	goto	u957
  1929  03E3  0000               	nop
  1930  03E4                     l1115:
  1931                           
  1932                           ;lcd.c: 57:     *(lcd.PORT) &= ~(1 << lcd.EN);
  1933  03E4  3001               	movlw	1
  1934  03E5  00F4               	movwf	??_LCD_Write
  1935  03E6  1283               	bcf	3,5	;RP0=0, select bank0
  1936  03E7  1303               	bcf	3,6	;RP1=0, select bank0
  1937  03E8  0C30               	rrf	_lcd+2,w
  1938  03E9  00F5               	movwf	??_LCD_Write+1
  1939  03EA  0CF5               	rrf	??_LCD_Write+1,f
  1940  03EB  0C75               	rrf	??_LCD_Write+1,w
  1941  03EC  3907               	andlw	7
  1942  03ED  3E01               	addlw	1
  1943  03EE  2BF1               	goto	u594
  1944  03EF                     u595:
  1945  03EF  1003               	clrc
  1946  03F0  0DF4               	rlf	??_LCD_Write,f
  1947  03F1                     u594:
  1948  03F1  3EFF               	addlw	-1
  1949  03F2  1D03               	skipz
  1950  03F3  2BEF               	goto	u595
  1951  03F4  0874               	movf	??_LCD_Write,w
  1952  03F5  3AFF               	xorlw	255
  1953  03F6  00F6               	movwf	??_LCD_Write+2
  1954  03F7  082E               	movf	_lcd,w
  1955  03F8  0084               	movwf	4
  1956  03F9  1783               	bsf	3,7
  1957  03FA  1C2F               	btfss	_lcd+1,0
  1958  03FB  1383               	bcf	3,7
  1959  03FC  0876               	movf	??_LCD_Write+2,w
  1960  03FD  0580               	andwf	0,f
  1961  03FE                     l148:
  1962  03FE  0008               	return
  1963  03FF                     __end_of_LCD_Write:
  1964                           
  1965                           	psect	text6
  1966  05F6                     __ptext6:	
  1967 ;; *************** function _LCD_Out *****************
  1968 ;; Defined at:
  1969 ;;		line 18 in file "lcd.c"
  1970 ;; Parameters:    Size  Location     Type
  1971 ;;  c               1    wreg     unsigned char 
  1972 ;; Auto vars:     Size  Location     Type
  1973 ;;  c               1    3[COMMON] unsigned char 
  1974 ;; Return value:  Size  Location     Type
  1975 ;;                  1    wreg      void 
  1976 ;; Registers used:
  1977 ;;		wreg, fsr0l, fsr0h, status,2, status,0
  1978 ;; Tracked objects:
  1979 ;;		On entry : 0/0
  1980 ;;		On exit  : 0/0
  1981 ;;		Unchanged: 0/0
  1982 ;; Data sizes:     COMMON   BANK0   BANK1   BANK3   BANK2
  1983 ;;      Params:         0       0       0       0       0
  1984 ;;      Locals:         1       0       0       0       0
  1985 ;;      Temps:          3       0       0       0       0
  1986 ;;      Totals:         4       0       0       0       0
  1987 ;;Total ram usage:        4 bytes
  1988 ;; Hardware stack levels used: 1
  1989 ;; This function calls:
  1990 ;;		Nothing
  1991 ;; This function is called by:
  1992 ;;		_LCD_Write
  1993 ;;		_LCD_putc
  1994 ;; This function uses a non-reentrant model
  1995 ;;
  1996                           
  1997                           
  1998                           ;psect for function _LCD_Out
  1999  05F6                     _LCD_Out:
  2000                           
  2001                           ;incstack = 0
  2002                           ; Regs used in _LCD_Out: [wreg-fsr0h+status,2+status,0]
  2003                           ;LCD_Out@c stored from wreg
  2004  05F6  00F3               	movwf	LCD_Out@c
  2005  05F7                     l1083:
  2006                           
  2007                           ;lcd.c: 20:     if ( c & 1 ){
  2008  05F7  1C73               	btfss	LCD_Out@c,0
  2009  05F8  2DFA               	goto	u451
  2010  05F9  2DFB               	goto	u450
  2011  05FA                     u451:
  2012  05FA  2E12               	goto	l1087
  2013  05FB                     u450:
  2014  05FB                     l1085:
  2015                           
  2016                           ;lcd.c: 21:         *(lcd.PORT) |= 1 << lcd.D4;
  2017  05FB  3001               	movlw	1
  2018  05FC  00F0               	movwf	??_LCD_Out
  2019  05FD  1283               	bcf	3,5	;RP0=0, select bank0
  2020  05FE  1303               	bcf	3,6	;RP1=0, select bank0
  2021  05FF  0831               	movf	_lcd+3,w
  2022  0600  3907               	andlw	7
  2023  0601  3E01               	addlw	1
  2024  0602  2E05               	goto	u464
  2025  0603                     u465:
  2026  0603  1003               	clrc
  2027  0604  0DF0               	rlf	??_LCD_Out,f
  2028  0605                     u464:
  2029  0605  3EFF               	addlw	-1
  2030  0606  1D03               	skipz
  2031  0607  2E03               	goto	u465
  2032  0608  0870               	movf	??_LCD_Out,w
  2033  0609  00F1               	movwf	??_LCD_Out+1
  2034  060A  082E               	movf	_lcd,w
  2035  060B  0084               	movwf	4
  2036  060C  1783               	bsf	3,7
  2037  060D  1C2F               	btfss	_lcd+1,0
  2038  060E  1383               	bcf	3,7
  2039  060F  0871               	movf	??_LCD_Out+1,w
  2040  0610  0480               	iorwf	0,f
  2041                           
  2042                           ;lcd.c: 22:     }
  2043  0611  2E29               	goto	l1089
  2044  0612                     l1087:
  2045                           
  2046                           ;lcd.c: 24:          *(lcd.PORT) &= ~(1 << lcd.D4);
  2047  0612  3001               	movlw	1
  2048  0613  00F0               	movwf	??_LCD_Out
  2049  0614  1283               	bcf	3,5	;RP0=0, select bank0
  2050  0615  1303               	bcf	3,6	;RP1=0, select bank0
  2051  0616  0831               	movf	_lcd+3,w
  2052  0617  3907               	andlw	7
  2053  0618  3E01               	addlw	1
  2054  0619  2E1C               	goto	u474
  2055  061A                     u475:
  2056  061A  1003               	clrc
  2057  061B  0DF0               	rlf	??_LCD_Out,f
  2058  061C                     u474:
  2059  061C  3EFF               	addlw	-1
  2060  061D  1D03               	skipz
  2061  061E  2E1A               	goto	u475
  2062  061F  0870               	movf	??_LCD_Out,w
  2063  0620  3AFF               	xorlw	255
  2064  0621  00F1               	movwf	??_LCD_Out+1
  2065  0622  082E               	movf	_lcd,w
  2066  0623  0084               	movwf	4
  2067  0624  1783               	bsf	3,7
  2068  0625  1C2F               	btfss	_lcd+1,0
  2069  0626  1383               	bcf	3,7
  2070  0627  0871               	movf	??_LCD_Out+1,w
  2071  0628  0580               	andwf	0,f
  2072  0629                     l1089:
  2073                           
  2074                           ;lcd.c: 27:     if ( c & 2 ) {
  2075  0629  1CF3               	btfss	LCD_Out@c,1
  2076  062A  2E2C               	goto	u481
  2077  062B  2E2D               	goto	u480
  2078  062C                     u481:
  2079  062C  2E45               	goto	l1093
  2080  062D                     u480:
  2081  062D                     l1091:
  2082                           
  2083                           ;lcd.c: 28:         *(lcd.PORT) |= 1 << lcd.D5;
  2084  062D  3001               	movlw	1
  2085  062E  00F0               	movwf	??_LCD_Out
  2086  062F  0C31               	rrf	_lcd+3,w
  2087  0630  00F1               	movwf	??_LCD_Out+1
  2088  0631  0CF1               	rrf	??_LCD_Out+1,f
  2089  0632  0C71               	rrf	??_LCD_Out+1,w
  2090  0633  3907               	andlw	7
  2091  0634  3E01               	addlw	1
  2092  0635  2E38               	goto	u494
  2093  0636                     u495:
  2094  0636  1003               	clrc
  2095  0637  0DF0               	rlf	??_LCD_Out,f
  2096  0638                     u494:
  2097  0638  3EFF               	addlw	-1
  2098  0639  1D03               	skipz
  2099  063A  2E36               	goto	u495
  2100  063B  0870               	movf	??_LCD_Out,w
  2101  063C  00F2               	movwf	??_LCD_Out+2
  2102  063D  082E               	movf	_lcd,w
  2103  063E  0084               	movwf	4
  2104  063F  1783               	bsf	3,7
  2105  0640  1C2F               	btfss	_lcd+1,0
  2106  0641  1383               	bcf	3,7
  2107  0642  0872               	movf	??_LCD_Out+2,w
  2108  0643  0480               	iorwf	0,f
  2109                           
  2110                           ;lcd.c: 29:     }
  2111  0644  2E5D               	goto	l1095
  2112  0645                     l1093:
  2113                           
  2114                           ;lcd.c: 31:         *(lcd.PORT) &= ~(1 << lcd.D5);
  2115  0645  3001               	movlw	1
  2116  0646  00F0               	movwf	??_LCD_Out
  2117  0647  0C31               	rrf	_lcd+3,w
  2118  0648  00F1               	movwf	??_LCD_Out+1
  2119  0649  0CF1               	rrf	??_LCD_Out+1,f
  2120  064A  0C71               	rrf	??_LCD_Out+1,w
  2121  064B  3907               	andlw	7
  2122  064C  3E01               	addlw	1
  2123  064D  2E50               	goto	u504
  2124  064E                     u505:
  2125  064E  1003               	clrc
  2126  064F  0DF0               	rlf	??_LCD_Out,f
  2127  0650                     u504:
  2128  0650  3EFF               	addlw	-1
  2129  0651  1D03               	skipz
  2130  0652  2E4E               	goto	u505
  2131  0653  0870               	movf	??_LCD_Out,w
  2132  0654  3AFF               	xorlw	255
  2133  0655  00F2               	movwf	??_LCD_Out+2
  2134  0656  082E               	movf	_lcd,w
  2135  0657  0084               	movwf	4
  2136  0658  1783               	bsf	3,7
  2137  0659  1C2F               	btfss	_lcd+1,0
  2138  065A  1383               	bcf	3,7
  2139  065B  0872               	movf	??_LCD_Out+2,w
  2140  065C  0580               	andwf	0,f
  2141  065D                     l1095:
  2142                           
  2143                           ;lcd.c: 34:     if ( c & 4 ) {
  2144  065D  1D73               	btfss	LCD_Out@c,2
  2145  065E  2E60               	goto	u511
  2146  065F  2E61               	goto	u510
  2147  0660                     u511:
  2148  0660  2E76               	goto	l1099
  2149  0661                     u510:
  2150  0661                     l1097:
  2151                           
  2152                           ;lcd.c: 35:         *(lcd.PORT) |= 1 << lcd.D6;
  2153  0661  3001               	movlw	1
  2154  0662  00F0               	movwf	??_LCD_Out
  2155  0663  0832               	movf	_lcd+4,w
  2156  0664  3907               	andlw	7
  2157  0665  3E01               	addlw	1
  2158  0666  2E69               	goto	u524
  2159  0667                     u525:
  2160  0667  1003               	clrc
  2161  0668  0DF0               	rlf	??_LCD_Out,f
  2162  0669                     u524:
  2163  0669  3EFF               	addlw	-1
  2164  066A  1D03               	skipz
  2165  066B  2E67               	goto	u525
  2166  066C  0870               	movf	??_LCD_Out,w
  2167  066D  00F1               	movwf	??_LCD_Out+1
  2168  066E  082E               	movf	_lcd,w
  2169  066F  0084               	movwf	4
  2170  0670  1783               	bsf	3,7
  2171  0671  1C2F               	btfss	_lcd+1,0
  2172  0672  1383               	bcf	3,7
  2173  0673  0871               	movf	??_LCD_Out+1,w
  2174  0674  0480               	iorwf	0,f
  2175                           
  2176                           ;lcd.c: 36:     }
  2177  0675  2E8B               	goto	l1101
  2178  0676                     l1099:
  2179                           
  2180                           ;lcd.c: 38:         *(lcd.PORT) &= ~(1 << lcd.D6);
  2181  0676  3001               	movlw	1
  2182  0677  00F0               	movwf	??_LCD_Out
  2183  0678  0832               	movf	_lcd+4,w
  2184  0679  3907               	andlw	7
  2185  067A  3E01               	addlw	1
  2186  067B  2E7E               	goto	u534
  2187  067C                     u535:
  2188  067C  1003               	clrc
  2189  067D  0DF0               	rlf	??_LCD_Out,f
  2190  067E                     u534:
  2191  067E  3EFF               	addlw	-1
  2192  067F  1D03               	skipz
  2193  0680  2E7C               	goto	u535
  2194  0681  0870               	movf	??_LCD_Out,w
  2195  0682  3AFF               	xorlw	255
  2196  0683  00F1               	movwf	??_LCD_Out+1
  2197  0684  082E               	movf	_lcd,w
  2198  0685  0084               	movwf	4
  2199  0686  1783               	bsf	3,7
  2200  0687  1C2F               	btfss	_lcd+1,0
  2201  0688  1383               	bcf	3,7
  2202  0689  0871               	movf	??_LCD_Out+1,w
  2203  068A  0580               	andwf	0,f
  2204  068B                     l1101:
  2205                           
  2206                           ;lcd.c: 41:     if ( c & 8 ) {
  2207  068B  1DF3               	btfss	LCD_Out@c,3
  2208  068C  2E8E               	goto	u541
  2209  068D  2E8F               	goto	u540
  2210  068E                     u541:
  2211  068E  2EA7               	goto	l1105
  2212  068F                     u540:
  2213  068F                     l1103:
  2214                           
  2215                           ;lcd.c: 42:          *(lcd.PORT) |= 1 << lcd.D7;
  2216  068F  3001               	movlw	1
  2217  0690  00F0               	movwf	??_LCD_Out
  2218  0691  0C32               	rrf	_lcd+4,w
  2219  0692  00F1               	movwf	??_LCD_Out+1
  2220  0693  0CF1               	rrf	??_LCD_Out+1,f
  2221  0694  0C71               	rrf	??_LCD_Out+1,w
  2222  0695  3907               	andlw	7
  2223  0696  3E01               	addlw	1
  2224  0697  2E9A               	goto	u554
  2225  0698                     u555:
  2226  0698  1003               	clrc
  2227  0699  0DF0               	rlf	??_LCD_Out,f
  2228  069A                     u554:
  2229  069A  3EFF               	addlw	-1
  2230  069B  1D03               	skipz
  2231  069C  2E98               	goto	u555
  2232  069D  0870               	movf	??_LCD_Out,w
  2233  069E  00F2               	movwf	??_LCD_Out+2
  2234  069F  082E               	movf	_lcd,w
  2235  06A0  0084               	movwf	4
  2236  06A1  1783               	bsf	3,7
  2237  06A2  1C2F               	btfss	_lcd+1,0
  2238  06A3  1383               	bcf	3,7
  2239  06A4  0872               	movf	??_LCD_Out+2,w
  2240  06A5  0480               	iorwf	0,f
  2241                           
  2242                           ;lcd.c: 43:     }
  2243  06A6  2EBF               	goto	l145
  2244  06A7                     l1105:
  2245                           
  2246                           ;lcd.c: 45:          *(lcd.PORT) &= ~(1 << lcd.D7);
  2247  06A7  3001               	movlw	1
  2248  06A8  00F0               	movwf	??_LCD_Out
  2249  06A9  0C32               	rrf	_lcd+4,w
  2250  06AA  00F1               	movwf	??_LCD_Out+1
  2251  06AB  0CF1               	rrf	??_LCD_Out+1,f
  2252  06AC  0C71               	rrf	??_LCD_Out+1,w
  2253  06AD  3907               	andlw	7
  2254  06AE  3E01               	addlw	1
  2255  06AF  2EB2               	goto	u564
  2256  06B0                     u565:
  2257  06B0  1003               	clrc
  2258  06B1  0DF0               	rlf	??_LCD_Out,f
  2259  06B2                     u564:
  2260  06B2  3EFF               	addlw	-1
  2261  06B3  1D03               	skipz
  2262  06B4  2EB0               	goto	u565
  2263  06B5  0870               	movf	??_LCD_Out,w
  2264  06B6  3AFF               	xorlw	255
  2265  06B7  00F2               	movwf	??_LCD_Out+2
  2266  06B8  082E               	movf	_lcd,w
  2267  06B9  0084               	movwf	4
  2268  06BA  1783               	bsf	3,7
  2269  06BB  1C2F               	btfss	_lcd+1,0
  2270  06BC  1383               	bcf	3,7
  2271  06BD  0872               	movf	??_LCD_Out+2,w
  2272  06BE  0580               	andwf	0,f
  2273  06BF                     l145:
  2274  06BF  0008               	return
  2275  06C0                     __end_of_LCD_Out:
  2276  007E                     btemp	set	126	;btemp
  2277  007E                     wtemp0	set	126
  2278                           
  2279                           	psect	config
  2280                           
  2281                           ;Config register CONFIG1 @ 0x2007
  2282                           ;	Oscillator Selection bits
  2283                           ;	FOSC = HS, HS oscillator: High-speed crystal/resonator on RA6/OSC2/CLKOUT and RA7/OSC1
      +                          /CLKIN
  2284                           ;	Watchdog Timer Enable bit
  2285                           ;	WDTE = OFF, WDT disabled and can be enabled by SWDTEN bit of the WDTCON register
  2286                           ;	Power-up Timer Enable bit
  2287                           ;	PWRTE = OFF, PWRT disabled
  2288                           ;	RE3/MCLR pin function select bit
  2289                           ;	MCLRE = ON, RE3/MCLR pin function is MCLR
  2290                           ;	Code Protection bit
  2291                           ;	CP = OFF, Program memory code protection is disabled
  2292                           ;	Data Code Protection bit
  2293                           ;	CPD = OFF, Data memory code protection is disabled
  2294                           ;	Brown Out Reset Selection bits
  2295                           ;	BOREN = OFF, BOR disabled
  2296                           ;	Internal External Switchover bit
  2297                           ;	IESO = OFF, Internal/External Switchover mode is disabled
  2298                           ;	Fail-Safe Clock Monitor Enabled bit
  2299                           ;	FCMEN = OFF, Fail-Safe Clock Monitor is disabled
  2300                           ;	Low Voltage Programming Enable bit
  2301                           ;	LVP = OFF, RB3 pin has digital I/O, HV on MCLR must be used for programming
  2302                           ;	In-Circuit Debugger Mode bit
  2303                           ;	DEBUG = OFF, In-Circuit Debugger disabled, RB6/ICSPCLK and RB7/ICSPDAT are general pur
      +                          pose I/O pins
  2304  2007                     	org	8199
  2305  2007  20F2               	dw	8434

Data Sizes:
    Strings     9
    Constant    17
    Data        5
    BSS         5
    Persistent  0
    Stack       0

Auto Spaces:
    Space          Size  Autos    Used
    COMMON           14     14      14
    BANK0            80     14      24
    BANK1            80      0       0
    BANK3            96      0       0
    BANK2            96      0       0

Pointer List with Targets:

    LCD_putrs@a	PTR const unsigned char  size(1) Largest target is 9
		 -> STR_1(CODE[9]), 

    display.PORT	PTR volatile unsigned char  size(2) Largest target is 1
		 -> PORTC(SFR0[1]), 

    lcd.PORT	PTR volatile unsigned char  size(2) Largest target is 1
		 -> PORTC(SFR0[1]), 

    lcd.PORT	PTR volatile unsigned char  size(2) Largest target is 1
		 -> PORTC(SFR0[1]), 

    S32$PORT	PTR volatile unsigned char  size(2) Largest target is 1
		 -> PORTC(SFR0[1]), 

    F1472.PORT	PTR volatile unsigned char  size(2) Largest target is 1
		 -> PORTC(SFR0[1]), 


Critical Paths under _main in COMMON

    _main->_LCD_Init
    _LCD_putrs->_LCD_putc
    _LCD_putc->_LCD_Out
    _LCD_Init->_LCD_Write
    _LCD_Write->_LCD_Out

Critical Paths under _main in BANK0

    _main->_LCD_Init

Critical Paths under _main in BANK1

    None.

Critical Paths under _main in BANK3

    None.

Critical Paths under _main in BANK2

    None.

Call Graph Tables:

 ---------------------------------------------------------------------------------
 (Depth) Function   	        Calls       Base Space   Used Autos Params    Refs
 ---------------------------------------------------------------------------------
 (0) _main                                                12    12      0     839
                                              2 BANK0     12    12      0
                           _LCD_Init
                          _LCD_Write
                           _LCD_putc
                          _LCD_putrs
                       _leer_teclado
 ---------------------------------------------------------------------------------
 (1) _leer_teclado                                         2     0      2       0
                                              0 COMMON     2     0      2
 ---------------------------------------------------------------------------------
 (1) _LCD_putrs                                            3     3      0     255
                                              8 COMMON     3     3      0
                           _LCD_putc
 ---------------------------------------------------------------------------------
 (2) _LCD_putc                                             4     4      0     132
                                              4 COMMON     4     4      0
                            _LCD_Out
 ---------------------------------------------------------------------------------
 (1) _LCD_Init                                             8     3      5     256
                                              8 COMMON     6     1      5
                                              0 BANK0      2     2      0
                          _LCD_Write
 ---------------------------------------------------------------------------------
 (1) _LCD_Write                                            4     4      0     110
                                              4 COMMON     4     4      0
                            _LCD_Out
 ---------------------------------------------------------------------------------
 (3) _LCD_Out                                              4     4      0      88
                                              0 COMMON     4     4      0
 ---------------------------------------------------------------------------------
 Estimated maximum stack depth 3
 ---------------------------------------------------------------------------------

 Call Graph Graphs:

 _main (ROOT)
   _LCD_Init
     _LCD_Write
       _LCD_Out
   _LCD_Write
   _LCD_putc
     _LCD_Out
   _LCD_putrs
     _LCD_putc
   _leer_teclado

 Address spaces:
Name               Size   Autos  Total    Cost      Usage
BANK3               60      0       0       9        0.0%
BITBANK3            60      0       0       8        0.0%
SFR3                 0      0       0       4        0.0%
BITSFR3              0      0       0       4        0.0%
BANK2               60      0       0      11        0.0%
BITBANK2            60      0       0      10        0.0%
SFR2                 0      0       0       5        0.0%
BITSFR2              0      0       0       5        0.0%
BANK1               50      0       0       7        0.0%
BITBANK1            50      0       0       6        0.0%
SFR1                 0      0       0       2        0.0%
BITSFR1              0      0       0       2        0.0%
BANK0               50      E      18       5       30.0%
BITBANK0            50      0       0       4        0.0%
SFR0                 0      0       0       1        0.0%
BITSFR0              0      0       0       1        0.0%
COMMON               E      E       E       1      100.0%
BITCOMMON            E      0       0       0        0.0%
CODE                 0      0       0       0        0.0%
DATA                 0      0      26      12        0.0%
ABS                  0      0      26       3        0.0%
NULL                 0      0       0       0        0.0%
STACK                0      0       0       2        0.0%
EEDATA             100      0       0       0        0.0%


Microchip Technology PIC Macro Assembler V2.32 build 20210201212658 
Symbol Table                                                                                   Mon Apr 19 15:58:08 2021

                      pc 0002                       l40 04B9                       l41 04C2  
                     l51 0522                       l43 04D6                       l52 052B  
                     l44 04DF                       l53 0534                       l45 04E8  
                     l38 04B0                       l47 04FC                       l39 053F  
                     l48 0505                       l49 050E                       l98 07A6  
                     fsr 0004                      l101 07AC                      l115 07B8  
                    l145 06BF                      l148 03FE                      l157 05F5  
                    l173 049C                      l169 05E9                      l185 03A3  
                    _RB0 0030                      _RB1 0031                      _RB2 0032  
                    _RB3 0033                      u510 0661                      u511 0660  
                    u504 0650                      u505 064E                      u450 05FB  
                    u451 05FA                      u540 068F                      u524 0669  
                    u604 040A                      u700 04C6                      u541 068E  
                    u525 0667                      u605 0408                      u701 04C5  
                    u534 067E                      u710 04D1                      u535 067C  
                    u615 0419                      u711 04D0                      u480 062D  
                    u464 0605                      u624 0432                      u800 0526  
                    u720 04DA                      u481 062C                      u465 0603  
                    u625 0430                      u801 0525                      u721 04D9  
                    u554 069A                      u474 061C                      u634 0450  
                    u810 052F                      u730 04E3                      u555 0698  
                    u475 061A                      u635 044E                      u811 052E  
                    u731 04E2                      u564 06B2                      u644 0471  
                    u820 0538                      u740 04EC                      u660 04A5  
                    u565 06B0                      u645 046F                      u821 0537  
                    u741 04EB                      u661 04A4                      u494 0638  
                    u574 03AF                      u830 055D                      u654 048F  
                    u750 04F7                      u670 04AB                      u495 0636  
                    u575 03AD                      u831 055C                      u655 048D  
                    u751 04F6                      u671 04AA                      u584 03CF  
                    u840 056B                      u760 0500                      u680 04B4  
                    u585 03CD                      u841 056A                      u761 04FF  
                    u681 04B3                      u594 03F1                      u850 0579  
                    u770 0509                      u690 04BD                      u595 03EF  
                    u851 0578                      u835 0559                      u907 0440  
                    u771 0508                      u691 04BC                      u780 0512  
                    u845 0567                      u917 047F                      u781 0511  
                    u870 03A3                      u790 051D                      u927 0582  
                    u855 0575                      u871 03A2                      u791 051C  
                    u865 05D6                      u937 0592                      u947 05A3  
                    u957 03DF                      u897 07CF          LCD_Init@display 0078  
                    _lcd 002E                      fsr0 0004                      indf 0000  
        __end_of_LCD_Out 06C0                     l1101 068B                     l1103 068F  
                   l1111 03C2                     l1105 06A7                     l1113 03DB  
                   l1121 0425                     l1115 03E4                     l1107 03A5  
                   l1131 0482                     l1123 043E                     l1211 0538  
                   l1203 0526                     l1109 03BC                     l1221 0551  
                   l1125 0443                     l1117 0400                     l1133 049D  
                   l1301 0727                     l1231 0579                     l1223 055D  
                   l1127 045D                     l1119 0416                     l1207 052F  
                   l1151 04C6                     l1143 04B4                     l1135 04A5  
                   l1215 053D                     l1311 0740                     l1303 072C  
                   l1241 05A8                     l1233 057C                     l1225 0561  
                   l1129 0464                     l1137 04A7                     l1321 0759  
                   l1313 0745                     l1305 0731                     l1091 062D  
                   l1083 05F7                     l1251 05C6                     l1243 05AE  
                   l1235 0586                     l1227 056B                     l1219 0540  
                   l1171 04EC                     l1163 04DA                     l1155 04CB  
                   l1147 04BD                     l1139 04AB                     l1323 075E  
                   l1315 074A                     l1307 0736                     l1093 0645  
                   l1085 05FB                     l1261 05D3                     l1253 05CC  
                   l1245 05B4                     l1237 058C                     l1229 056F  
                   l1157 04CD                     l1317 074F                     l1309 073B  
                   l1095 065D                     l1087 0612                     l1255 05D2  
                   l1247 05BA                     l1239 059D                     l1271 0396  
                   l1191 0512                     l1183 0500                     l1175 04F1  
                   l1167 04E3                     l1159 04D1                     l1343 07C7  
                   l1319 0754                     l1327 0763                     l1097 0661  
                   l1089 0629                     l1249 05C0                     l1265 0380  
                   l1177 04F3                     l1329 079A                     l1281 06D2  
                   l1273 06C0                     l1099 0676                     l1267 0383  
                   l1195 0517                     l1187 0509                     l1179 04F7  
                   l1291 0707                     l1283 06D3                     l1275 06CA  
                   l1269 0390                     l1197 0519                     l1293 0713  
                   l1285 06E6                     l1277 06CE                     l1199 051D  
                   l1295 0718                     l1287 06FB                     l1279 06D0  
                   l1297 071D                     l1289 0701                     l1299 0722  
                   l1389 0768                     STR_1 001A                     _IOCB 0096  
                   _WPUB 0095              main@teclado 002A                     _main 06C0  
                   _text 0009                     btemp 007E                     start 0000  
     __size_of_LCD_Write 005B              LCD_Init@cmd 007D       __size_of_LCD_putrs 0025  
       __end_of_LCD_Init 05F6         __end_of_LCD_putc 049D                    ?_main 0070  
                  _PORTA 0005                    _PORTB 0006                    _PORTC 0007  
                  _TRISA 0085                    _TRISB 0086                    _TRISC 0087  
          ?_leer_teclado 0070             main@selector 002C                    pclath 000A  
                  status 0003                    wtemp0 007E          __initialization 07D9  
           __end_of_main 07D9             __end_of_text 001A                   ??_main 0022  
              ??_LCD_Out 0070           ??_leer_teclado 0072        __end_of_LCD_Write 03FF  
      __end_of_LCD_putrs 03A4                   _ANSELH 0189  __end_of__initialization 07FC  
              ?_LCD_Init 0078                ?_LCD_putc 0070           __pcstackCOMMON 0070  
           __pidataBANK0 037A                LCD_putc@c 0077               __pbssBANK0 002E  
             ??_LCD_Init 0020               ??_LCD_putc 0074     __end_of_leer_teclado 0540  
             __pmaintext 06C0                  _LCD_Out 05F6               __stringtab 0003  
                __ptext1 049D                  __ptext2 037F                  __ptext3 03FF  
                __ptext4 0540                  __ptext5 03A4                  __ptext6 05F6  
                main@lcd 0025                _LCD_Write 03A4     end_of_initialization 07FC  
              _LCD_putrs 037F               ?_LCD_Write 0070               ?_LCD_putrs 0070  
  __size_of_leer_teclado 00A3        __size_of_LCD_Init 00B6        __size_of_LCD_putc 009E  
             LCD_Write@c 0077      start_initialization 07D9             _leer_teclado 049D  
             LCD_putrs@a 007A               LCD_putrs@i 0078              __pdataBANK0 0033  
               ?_LCD_Out 0070                ___latbits 0002            __pcstackBANK0 0020  
               LCD_Out@c 0073              ??_LCD_Write 0074              ??_LCD_putrs 0078  
              __pstrings 0003                 _LCD_Init 0540                 _LCD_putc 03FF  
              main@F1472 0033              __stringbase 0008         __size_of_LCD_Out 00CA  
     __end_of__stringtab 0009            __size_of_main 0119                stringcode 0003  
             _OPTION_REG 0081                 stringdir 0003                 stringtab 0003  
